{
  "contractName": "Aadhar",
  "abi": [
    {
      "inputs": [],
      "stateMutability": "nonpayable",
      "type": "constructor"
    },
    {
      "inputs": [
        {
          "internalType": "uint256",
          "name": "",
          "type": "uint256"
        }
      ],
      "name": "activeRequests",
      "outputs": [
        {
          "internalType": "address",
          "name": "",
          "type": "address"
        }
      ],
      "stateMutability": "view",
      "type": "function",
      "constant": true
    },
    {
      "inputs": [],
      "name": "activeRequestsLength",
      "outputs": [
        {
          "internalType": "uint256",
          "name": "",
          "type": "uint256"
        }
      ],
      "stateMutability": "view",
      "type": "function",
      "constant": true
    },
    {
      "inputs": [
        {
          "internalType": "address",
          "name": "",
          "type": "address"
        }
      ],
      "name": "address_crime_map",
      "outputs": [
        {
          "internalType": "uint256",
          "name": "type_org",
          "type": "uint256"
        },
        {
          "internalType": "address",
          "name": "orgAddress",
          "type": "address"
        },
        {
          "internalType": "string",
          "name": "pic_hash",
          "type": "string"
        },
        {
          "internalType": "string",
          "name": "name",
          "type": "string"
        },
        {
          "internalType": "string",
          "name": "contactNo",
          "type": "string"
        },
        {
          "internalType": "bool",
          "name": "isVerified",
          "type": "bool"
        },
        {
          "internalType": "string",
          "name": "location",
          "type": "string"
        },
        {
          "internalType": "string",
          "name": "about",
          "type": "string"
        },
        {
          "internalType": "string",
          "name": "phyAdd",
          "type": "string"
        },
        {
          "internalType": "string",
          "name": "email",
          "type": "string"
        },
        {
          "internalType": "string",
          "name": "org_website_link",
          "type": "string"
        }
      ],
      "stateMutability": "view",
      "type": "function",
      "constant": true
    },
    {
      "inputs": [
        {
          "internalType": "address",
          "name": "",
          "type": "address"
        }
      ],
      "name": "address_edu_map",
      "outputs": [
        {
          "internalType": "uint256",
          "name": "type_org",
          "type": "uint256"
        },
        {
          "internalType": "address",
          "name": "orgAddress",
          "type": "address"
        },
        {
          "internalType": "string",
          "name": "pic_hash",
          "type": "string"
        },
        {
          "internalType": "string",
          "name": "name",
          "type": "string"
        },
        {
          "internalType": "string",
          "name": "contactNo",
          "type": "string"
        },
        {
          "internalType": "bool",
          "name": "isVerified",
          "type": "bool"
        },
        {
          "internalType": "string",
          "name": "location",
          "type": "string"
        },
        {
          "internalType": "string",
          "name": "about",
          "type": "string"
        },
        {
          "internalType": "string",
          "name": "phyAdd",
          "type": "string"
        },
        {
          "internalType": "string",
          "name": "email",
          "type": "string"
        },
        {
          "internalType": "string",
          "name": "org_website_link",
          "type": "string"
        }
      ],
      "stateMutability": "view",
      "type": "function",
      "constant": true
    },
    {
      "inputs": [
        {
          "internalType": "address",
          "name": "",
          "type": "address"
        }
      ],
      "name": "address_med_map",
      "outputs": [
        {
          "internalType": "uint256",
          "name": "type_org",
          "type": "uint256"
        },
        {
          "internalType": "address",
          "name": "orgAddress",
          "type": "address"
        },
        {
          "internalType": "string",
          "name": "pic_hash",
          "type": "string"
        },
        {
          "internalType": "string",
          "name": "name",
          "type": "string"
        },
        {
          "internalType": "string",
          "name": "contactNo",
          "type": "string"
        },
        {
          "internalType": "bool",
          "name": "isVerified",
          "type": "bool"
        },
        {
          "internalType": "string",
          "name": "location",
          "type": "string"
        },
        {
          "internalType": "string",
          "name": "about",
          "type": "string"
        },
        {
          "internalType": "string",
          "name": "phyAdd",
          "type": "string"
        },
        {
          "internalType": "string",
          "name": "email",
          "type": "string"
        },
        {
          "internalType": "string",
          "name": "org_website_link",
          "type": "string"
        }
      ],
      "stateMutability": "view",
      "type": "function",
      "constant": true
    },
    {
      "inputs": [
        {
          "internalType": "address",
          "name": "",
          "type": "address"
        }
      ],
      "name": "address_person_map",
      "outputs": [
        {
          "internalType": "string",
          "name": "name",
          "type": "string"
        },
        {
          "internalType": "string",
          "name": "pic_hash",
          "type": "string"
        },
        {
          "internalType": "string",
          "name": "AadharNo",
          "type": "string"
        },
        {
          "internalType": "string",
          "name": "dob",
          "type": "string"
        },
        {
          "internalType": "string",
          "name": "contactNo",
          "type": "string"
        },
        {
          "internalType": "string",
          "name": "Gender",
          "type": "string"
        },
        {
          "internalType": "string",
          "name": "phyAddress",
          "type": "string"
        },
        {
          "internalType": "address",
          "name": "ethAddress",
          "type": "address"
        }
      ],
      "stateMutability": "view",
      "type": "function",
      "constant": true
    },
    {
      "inputs": [
        {
          "internalType": "address",
          "name": "",
          "type": "address"
        }
      ],
      "name": "downvoteCount",
      "outputs": [
        {
          "internalType": "uint256",
          "name": "",
          "type": "uint256"
        }
      ],
      "stateMutability": "view",
      "type": "function",
      "constant": true
    },
    {
      "inputs": [
        {
          "internalType": "address",
          "name": "",
          "type": "address"
        }
      ],
      "name": "exists_address_crime_map",
      "outputs": [
        {
          "internalType": "bool",
          "name": "",
          "type": "bool"
        }
      ],
      "stateMutability": "view",
      "type": "function",
      "constant": true
    },
    {
      "inputs": [
        {
          "internalType": "address",
          "name": "",
          "type": "address"
        }
      ],
      "name": "exists_address_edu_map",
      "outputs": [
        {
          "internalType": "bool",
          "name": "",
          "type": "bool"
        }
      ],
      "stateMutability": "view",
      "type": "function",
      "constant": true
    },
    {
      "inputs": [
        {
          "internalType": "address",
          "name": "",
          "type": "address"
        }
      ],
      "name": "exists_address_med_map",
      "outputs": [
        {
          "internalType": "bool",
          "name": "",
          "type": "bool"
        }
      ],
      "stateMutability": "view",
      "type": "function",
      "constant": true
    },
    {
      "inputs": [
        {
          "internalType": "address",
          "name": "",
          "type": "address"
        }
      ],
      "name": "exists_address_person_map",
      "outputs": [
        {
          "internalType": "bool",
          "name": "",
          "type": "bool"
        }
      ],
      "stateMutability": "view",
      "type": "function",
      "constant": true
    },
    {
      "inputs": [
        {
          "internalType": "address",
          "name": "",
          "type": "address"
        }
      ],
      "name": "upvoteCount",
      "outputs": [
        {
          "internalType": "uint256",
          "name": "",
          "type": "uint256"
        }
      ],
      "stateMutability": "view",
      "type": "function",
      "constant": true
    },
    {
      "inputs": [
        {
          "internalType": "address",
          "name": "",
          "type": "address"
        }
      ],
      "name": "verified_address_crime_map",
      "outputs": [
        {
          "internalType": "bool",
          "name": "",
          "type": "bool"
        }
      ],
      "stateMutability": "view",
      "type": "function",
      "constant": true
    },
    {
      "inputs": [
        {
          "internalType": "address",
          "name": "",
          "type": "address"
        }
      ],
      "name": "verified_address_edu_map",
      "outputs": [
        {
          "internalType": "bool",
          "name": "",
          "type": "bool"
        }
      ],
      "stateMutability": "view",
      "type": "function",
      "constant": true
    },
    {
      "inputs": [
        {
          "internalType": "address",
          "name": "",
          "type": "address"
        }
      ],
      "name": "verified_address_med_map",
      "outputs": [
        {
          "internalType": "bool",
          "name": "",
          "type": "bool"
        }
      ],
      "stateMutability": "view",
      "type": "function",
      "constant": true
    },
    {
      "inputs": [],
      "name": "verifierCount",
      "outputs": [
        {
          "internalType": "uint256",
          "name": "",
          "type": "uint256"
        }
      ],
      "stateMutability": "view",
      "type": "function",
      "constant": true
    },
    {
      "inputs": [
        {
          "internalType": "uint256",
          "name": "",
          "type": "uint256"
        }
      ],
      "name": "verifiersArr",
      "outputs": [
        {
          "internalType": "address",
          "name": "",
          "type": "address"
        }
      ],
      "stateMutability": "view",
      "type": "function",
      "constant": true
    },
    {
      "inputs": [
        {
          "internalType": "address",
          "name": "",
          "type": "address"
        },
        {
          "internalType": "address",
          "name": "",
          "type": "address"
        }
      ],
      "name": "voteStatus",
      "outputs": [
        {
          "internalType": "bool",
          "name": "",
          "type": "bool"
        }
      ],
      "stateMutability": "view",
      "type": "function",
      "constant": true
    },
    {
      "inputs": [
        {
          "internalType": "address",
          "name": "verifier",
          "type": "address"
        }
      ],
      "name": "addVerifier",
      "outputs": [
        {
          "internalType": "bool",
          "name": "",
          "type": "bool"
        }
      ],
      "stateMutability": "nonpayable",
      "type": "function"
    },
    {
      "inputs": [
        {
          "internalType": "address",
          "name": "verifier",
          "type": "address"
        }
      ],
      "name": "removeVerifier",
      "outputs": [
        {
          "internalType": "bool",
          "name": "",
          "type": "bool"
        }
      ],
      "stateMutability": "nonpayable",
      "type": "function"
    },
    {
      "inputs": [
        {
          "internalType": "address",
          "name": "org_address",
          "type": "address"
        },
        {
          "internalType": "string",
          "name": "name",
          "type": "string"
        },
        {
          "internalType": "uint256",
          "name": "type_org",
          "type": "uint256"
        },
        {
          "internalType": "string",
          "name": "pic_hash",
          "type": "string"
        },
        {
          "internalType": "string",
          "name": "contactNo",
          "type": "string"
        },
        {
          "internalType": "string",
          "name": "location",
          "type": "string"
        },
        {
          "internalType": "string",
          "name": "about",
          "type": "string"
        },
        {
          "internalType": "string",
          "name": "phyAdd",
          "type": "string"
        },
        {
          "internalType": "string",
          "name": "email",
          "type": "string"
        },
        {
          "internalType": "string",
          "name": "website_link",
          "type": "string"
        }
      ],
      "name": "registerOrg",
      "outputs": [],
      "stateMutability": "nonpayable",
      "type": "function"
    },
    {
      "inputs": [
        {
          "internalType": "address",
          "name": "person_address",
          "type": "address"
        },
        {
          "internalType": "string",
          "name": "pic_hash",
          "type": "string"
        },
        {
          "internalType": "string",
          "name": "name",
          "type": "string"
        },
        {
          "internalType": "string",
          "name": "Gender",
          "type": "string"
        },
        {
          "internalType": "string",
          "name": "AadharNo",
          "type": "string"
        },
        {
          "internalType": "string",
          "name": "phyAddress",
          "type": "string"
        },
        {
          "internalType": "string",
          "name": "dob",
          "type": "string"
        },
        {
          "internalType": "string",
          "name": "contactNo",
          "type": "string"
        }
      ],
      "name": "registerPerson",
      "outputs": [],
      "stateMutability": "nonpayable",
      "type": "function"
    },
    {
      "inputs": [
        {
          "internalType": "address",
          "name": "person_address",
          "type": "address"
        }
      ],
      "name": "getPerson",
      "outputs": [
        {
          "components": [
            {
              "internalType": "string",
              "name": "name",
              "type": "string"
            },
            {
              "internalType": "string",
              "name": "pic_hash",
              "type": "string"
            },
            {
              "internalType": "string",
              "name": "AadharNo",
              "type": "string"
            },
            {
              "internalType": "string",
              "name": "dob",
              "type": "string"
            },
            {
              "internalType": "string",
              "name": "contactNo",
              "type": "string"
            },
            {
              "internalType": "string",
              "name": "Gender",
              "type": "string"
            },
            {
              "internalType": "string",
              "name": "phyAddress",
              "type": "string"
            },
            {
              "internalType": "address",
              "name": "ethAddress",
              "type": "address"
            },
            {
              "components": [
                {
                  "internalType": "address",
                  "name": "org_address",
                  "type": "address"
                },
                {
                  "internalType": "uint256",
                  "name": "org_type",
                  "type": "uint256"
                },
                {
                  "internalType": "string",
                  "name": "org_name",
                  "type": "string"
                },
                {
                  "internalType": "string",
                  "name": "doc_title",
                  "type": "string"
                },
                {
                  "internalType": "string",
                  "name": "Description",
                  "type": "string"
                },
                {
                  "internalType": "string",
                  "name": "Hash",
                  "type": "string"
                },
                {
                  "internalType": "uint256",
                  "name": "timeStamp",
                  "type": "uint256"
                }
              ],
              "internalType": "struct Aadhar.Person_data[]",
              "name": "Edu_data",
              "type": "tuple[]"
            },
            {
              "components": [
                {
                  "internalType": "address",
                  "name": "org_address",
                  "type": "address"
                },
                {
                  "internalType": "uint256",
                  "name": "org_type",
                  "type": "uint256"
                },
                {
                  "internalType": "string",
                  "name": "org_name",
                  "type": "string"
                },
                {
                  "internalType": "string",
                  "name": "doc_title",
                  "type": "string"
                },
                {
                  "internalType": "string",
                  "name": "Description",
                  "type": "string"
                },
                {
                  "internalType": "string",
                  "name": "Hash",
                  "type": "string"
                },
                {
                  "internalType": "uint256",
                  "name": "timeStamp",
                  "type": "uint256"
                }
              ],
              "internalType": "struct Aadhar.Person_data[]",
              "name": "Crime_data",
              "type": "tuple[]"
            },
            {
              "components": [
                {
                  "internalType": "address",
                  "name": "org_address",
                  "type": "address"
                },
                {
                  "internalType": "uint256",
                  "name": "org_type",
                  "type": "uint256"
                },
                {
                  "internalType": "string",
                  "name": "org_name",
                  "type": "string"
                },
                {
                  "internalType": "string",
                  "name": "doc_title",
                  "type": "string"
                },
                {
                  "internalType": "string",
                  "name": "Description",
                  "type": "string"
                },
                {
                  "internalType": "string",
                  "name": "Hash",
                  "type": "string"
                },
                {
                  "internalType": "uint256",
                  "name": "timeStamp",
                  "type": "uint256"
                }
              ],
              "internalType": "struct Aadhar.Person_data[]",
              "name": "Med_data",
              "type": "tuple[]"
            }
          ],
          "internalType": "struct Aadhar.Person",
          "name": "",
          "type": "tuple"
        }
      ],
      "stateMutability": "view",
      "type": "function",
      "constant": true
    },
    {
      "inputs": [
        {
          "internalType": "address",
          "name": "org_address",
          "type": "address"
        }
      ],
      "name": "getOrg",
      "outputs": [
        {
          "components": [
            {
              "internalType": "uint256",
              "name": "type_org",
              "type": "uint256"
            },
            {
              "internalType": "address",
              "name": "orgAddress",
              "type": "address"
            },
            {
              "internalType": "string",
              "name": "pic_hash",
              "type": "string"
            },
            {
              "internalType": "string",
              "name": "name",
              "type": "string"
            },
            {
              "internalType": "string",
              "name": "contactNo",
              "type": "string"
            },
            {
              "internalType": "bool",
              "name": "isVerified",
              "type": "bool"
            },
            {
              "internalType": "string",
              "name": "location",
              "type": "string"
            },
            {
              "internalType": "string",
              "name": "about",
              "type": "string"
            },
            {
              "internalType": "string",
              "name": "phyAdd",
              "type": "string"
            },
            {
              "internalType": "string",
              "name": "email",
              "type": "string"
            },
            {
              "internalType": "string",
              "name": "org_website_link",
              "type": "string"
            }
          ],
          "internalType": "struct Aadhar.Organization",
          "name": "",
          "type": "tuple"
        }
      ],
      "stateMutability": "view",
      "type": "function",
      "constant": true
    },
    {
      "inputs": [
        {
          "internalType": "address",
          "name": "user_address",
          "type": "address"
        },
        {
          "internalType": "uint256",
          "name": "org_type",
          "type": "uint256"
        }
      ],
      "name": "getDocsList",
      "outputs": [
        {
          "components": [
            {
              "internalType": "address",
              "name": "org_address",
              "type": "address"
            },
            {
              "internalType": "uint256",
              "name": "org_type",
              "type": "uint256"
            },
            {
              "internalType": "string",
              "name": "org_name",
              "type": "string"
            },
            {
              "internalType": "string",
              "name": "doc_title",
              "type": "string"
            },
            {
              "internalType": "string",
              "name": "Description",
              "type": "string"
            },
            {
              "internalType": "string",
              "name": "Hash",
              "type": "string"
            },
            {
              "internalType": "uint256",
              "name": "timeStamp",
              "type": "uint256"
            }
          ],
          "internalType": "struct Aadhar.Person_data[]",
          "name": "",
          "type": "tuple[]"
        }
      ],
      "stateMutability": "view",
      "type": "function",
      "constant": true
    },
    {
      "inputs": [
        {
          "internalType": "address",
          "name": "my_address",
          "type": "address"
        }
      ],
      "name": "checkRole",
      "outputs": [
        {
          "internalType": "uint256",
          "name": "",
          "type": "uint256"
        }
      ],
      "stateMutability": "view",
      "type": "function",
      "constant": true
    },
    {
      "inputs": [
        {
          "internalType": "address",
          "name": "person_address",
          "type": "address"
        },
        {
          "internalType": "uint256",
          "name": "org_type",
          "type": "uint256"
        },
        {
          "internalType": "address",
          "name": "org_address",
          "type": "address"
        },
        {
          "internalType": "string",
          "name": "doc_hash",
          "type": "string"
        },
        {
          "internalType": "string",
          "name": "doc_title",
          "type": "string"
        },
        {
          "internalType": "string",
          "name": "Description",
          "type": "string"
        }
      ],
      "name": "addPersonDoc",
      "outputs": [],
      "stateMutability": "nonpayable",
      "type": "function"
    },
    {
      "inputs": [
        {
          "internalType": "address",
          "name": "org",
          "type": "address"
        }
      ],
      "name": "upvoteRequest",
      "outputs": [
        {
          "internalType": "bool",
          "name": "",
          "type": "bool"
        }
      ],
      "stateMutability": "nonpayable",
      "type": "function"
    },
    {
      "inputs": [
        {
          "internalType": "address",
          "name": "org",
          "type": "address"
        }
      ],
      "name": "downvoteRequest",
      "outputs": [
        {
          "internalType": "bool",
          "name": "",
          "type": "bool"
        }
      ],
      "stateMutability": "nonpayable",
      "type": "function"
    }
  ],
  "bytecode": "0x60806040526000600355600060085534801561001a57600080fd5b50600080546001600160a01b031916331790556155c6806200003d6000396000f3fe608060405234801561001057600080fd5b50600436106101cf5760003560e01c80638dd5ed7811610104578063a7edaddc116100a2578063e5500ca011610071578063e5500ca0146104b1578063e9cbb604146104c4578063fb4adf52146104f2578063fd2e8080146104fb57600080fd5b8063a7edaddc14610445578063ca2dfd0a14610468578063db3549da1461047b578063dc2fee021461049e57600080fd5b80639ade6cc2116100de5780639ade6cc2146103f35780639cc81fee14610416578063a0d7823e1461041f578063a7453b6a1461043257600080fd5b80638dd5ed78146103aa5780639000b3d6146103bd57806392070306146103d057600080fd5b8063493892ce116101715780635b5b18641161014b5780635b5b18641461032a578063658d9257146103515780636a304326146103745780636d3a92eb1461038757600080fd5b8063493892ce146102bf57806350cf4061146102df578063552d2d5c1461030a57600080fd5b806314b90345116101ad57806314b90345146102345780631c4693931461025e5780631f1f86521461028c578063313965bf146102ac57600080fd5b806304757a1f146101d45780630656c6ce146101e9578063110a794714610211575b600080fd5b6101e76101e2366004614ba3565b61051b565b005b6101fc6101f7366004614ccf565b610618565b60405190151581526020015b60405180910390f35b6101fc61021f366004614ccf565b60116020526000908152604090205460ff1681565b610247610242366004614ccf565b610857565b6040516102089b9a99989796959493929190614d3e565b61027e61026c366004614ccf565b60056020526000908152604090205481565b604051908152602001610208565b61029f61029a366004614ccf565b610cfd565b6040516102089190614e10565b6101e76102ba366004614f44565b611396565b6102d26102cd366004614ff6565b6118ac565b60405161020891906150fb565b6102f26102ed36600461510e565b61258c565b6040516001600160a01b039091168152602001610208565b61031d610318366004614ccf565b6125b6565b6040516102089190615127565b61033d610338366004614ccf565b6132c7565b60405161020898979695949392919061526d565b6101fc61035f366004614ccf565b60126020526000908152604090205460ff1681565b6101fc610382366004614ccf565b6136c8565b6101fc610395366004614ccf565b60136020526000908152604090205460ff1681565b6102476103b8366004614ccf565b6138f8565b6101fc6103cb366004614ccf565b61392a565b6101fc6103de366004614ccf565b600e6020526000908152604090205460ff1681565b6101fc610401366004614ccf565b60106020526000908152604090205460ff1681565b61027e60085481565b61027e61042d366004614ccf565b613a96565b610247610440366004614ccf565b613b9e565b6101fc610453366004614ccf565b600d6020526000908152604090205460ff1681565b6101fc610476366004614ccf565b613bd0565b6101fc610489366004614ccf565b600f6020526000908152604090205460ff1681565b6102f26104ac36600461510e565b613e5e565b6101e76104bf366004615318565b613e6e565b6101fc6104d2366004615474565b600660209081526000928352604080842090915290825290205460ff1681565b61027e60035481565b61027e610509366004614ccf565b60046020526000908152604090205481565b6001600160a01b0388166000908152600960209081526040909120875190916105489183918a0190614a50565b50875161055e90600183019060208b0190614a50565b5085516105749060058301906020890190614a50565b50845161058a9060028301906020880190614a50565b5082516105a09060038301906020860190614a50565b506007810180546001600160a01b0319166001600160a01b038b1617905583516105d39060068301906020870190614a50565b5081516105e99060048301906020850190614a50565b5050506001600160a01b039096166000908152600d60205260409020805460ff19166001179055505050505050565b3360009081526002602052604081205460ff1615156001146106a75760405162461bcd60e51b815260206004820152603660248201527f4f6e6c7920766572696669657220697320616c6c6f77656420746f206f70657260448201527f61746520746869732066756e6374696f6e616c6974790000000000000000000060648201526084015b60405180910390fd5b6001600160a01b0382166000908152600e602052604090205460ff16806106e657506001600160a01b03821660009081526010602052604090205460ff165b8061070957506001600160a01b0382166000908152600f602052604090205460ff165b6107555760405162461bcd60e51b815260206004820152600d60248201527f4f7267206e6f7420666f756e6400000000000000000000000000000000000000604482015260640161069e565b3360009081526006602090815260408083206001600160a01b038616845290915290205460ff16156107c95760405162461bcd60e51b815260206004820152600d60248201527f416c726561647920566f74656400000000000000000000000000000000000000604482015260640161069e565b3360009081526006602090815260408083206001600160a01b03861684528252808320805460ff19166001908117909155600490925282208054919290916108129084906154bd565b9091555050600354610826906002906154d5565b6001600160a01b038316600090815260046020526040902054111561084e5761084e82614494565b5060015b919050565b600c6020526000908152604090208054600182015460028301805492936001600160a01b0390921692610889906154f7565b80601f01602080910402602001604051908101604052809291908181526020018280546108b5906154f7565b80156109025780601f106108d757610100808354040283529160200191610902565b820191906000526020600020905b8154815290600101906020018083116108e557829003601f168201915b505050505090806003018054610917906154f7565b80601f0160208091040260200160405190810160405280929190818152602001828054610943906154f7565b80156109905780601f1061096557610100808354040283529160200191610990565b820191906000526020600020905b81548152906001019060200180831161097357829003601f168201915b5050505050908060040180546109a5906154f7565b80601f01602080910402602001604051908101604052809291908181526020018280546109d1906154f7565b8015610a1e5780601f106109f357610100808354040283529160200191610a1e565b820191906000526020600020905b815481529060010190602001808311610a0157829003601f168201915b5050506005840154600685018054949560ff909216949193509150610a42906154f7565b80601f0160208091040260200160405190810160405280929190818152602001828054610a6e906154f7565b8015610abb5780601f10610a9057610100808354040283529160200191610abb565b820191906000526020600020905b815481529060010190602001808311610a9e57829003601f168201915b505050505090806007018054610ad0906154f7565b80601f0160208091040260200160405190810160405280929190818152602001828054610afc906154f7565b8015610b495780601f10610b1e57610100808354040283529160200191610b49565b820191906000526020600020905b815481529060010190602001808311610b2c57829003601f168201915b505050505090806008018054610b5e906154f7565b80601f0160208091040260200160405190810160405280929190818152602001828054610b8a906154f7565b8015610bd75780601f10610bac57610100808354040283529160200191610bd7565b820191906000526020600020905b815481529060010190602001808311610bba57829003601f168201915b505050505090806009018054610bec906154f7565b80601f0160208091040260200160405190810160405280929190818152602001828054610c18906154f7565b8015610c655780601f10610c3a57610100808354040283529160200191610c65565b820191906000526020600020905b815481529060010190602001808311610c4857829003601f168201915b50505050509080600a018054610c7a906154f7565b80601f0160208091040260200160405190810160405280929190818152602001828054610ca6906154f7565b8015610cf35780601f10610cc857610100808354040283529160200191610cf3565b820191906000526020600020905b815481529060010190602001808311610cd657829003601f168201915b505050505090508b565b610d656040518061016001604052806000815260200160006001600160a01b0316815260200160608152602001606081526020016060815260200160001515815260200160608152602001606081526020016060815260200160608152602001606081525090565b6001600160a01b0382166000908152600e602052604090205460ff161561126d576001600160a01b038083166000908152600a6020908152604091829020825161016081018452815481526001820154909416918401919091526002810180549192840191610dd3906154f7565b80601f0160208091040260200160405190810160405280929190818152602001828054610dff906154f7565b8015610e4c5780601f10610e2157610100808354040283529160200191610e4c565b820191906000526020600020905b815481529060010190602001808311610e2f57829003601f168201915b50505050508152602001600382018054610e65906154f7565b80601f0160208091040260200160405190810160405280929190818152602001828054610e91906154f7565b8015610ede5780601f10610eb357610100808354040283529160200191610ede565b820191906000526020600020905b815481529060010190602001808311610ec157829003601f168201915b50505050508152602001600482018054610ef7906154f7565b80601f0160208091040260200160405190810160405280929190818152602001828054610f23906154f7565b8015610f705780601f10610f4557610100808354040283529160200191610f70565b820191906000526020600020905b815481529060010190602001808311610f5357829003601f168201915b5050509183525050600582015460ff1615156020820152600682018054604090920191610f9c906154f7565b80601f0160208091040260200160405190810160405280929190818152602001828054610fc8906154f7565b80156110155780601f10610fea57610100808354040283529160200191611015565b820191906000526020600020905b815481529060010190602001808311610ff857829003601f168201915b5050505050815260200160078201805461102e906154f7565b80601f016020809104026020016040519081016040528092919081815260200182805461105a906154f7565b80156110a75780601f1061107c576101008083540402835291602001916110a7565b820191906000526020600020905b81548152906001019060200180831161108a57829003601f168201915b505050505081526020016008820180546110c0906154f7565b80601f01602080910402602001604051908101604052809291908181526020018280546110ec906154f7565b80156111395780601f1061110e57610100808354040283529160200191611139565b820191906000526020600020905b81548152906001019060200180831161111c57829003601f168201915b50505050508152602001600982018054611152906154f7565b80601f016020809104026020016040519081016040528092919081815260200182805461117e906154f7565b80156111cb5780601f106111a0576101008083540402835291602001916111cb565b820191906000526020600020905b8154815290600101906020018083116111ae57829003601f168201915b50505050508152602001600a820180546111e4906154f7565b80601f0160208091040260200160405190810160405280929190818152602001828054611210906154f7565b801561125d5780601f106112325761010080835404028352916020019161125d565b820191906000526020600020905b81548152906001019060200180831161124057829003601f168201915b5050505050815250509050919050565b6001600160a01b03821660009081526010602052604090205460ff16156112db576001600160a01b038083166000908152600c6020908152604091829020825161016081018452815481526001820154909416918401919091526002810180549192840191610dd3906154f7565b6001600160a01b0382166000908152600f602052604090205460ff1615611349576001600160a01b038083166000908152600b6020908152604091829020825161016081018452815481526001820154909416918401919091526002810180549192840191610dd3906154f7565b6001600160a01b038083166000908152600a6020908152604091829020825161016081018452815481526001820154909416918401919091526002810180549192840191610dd3906154f7565b6001600160a01b03841660009081526011602052604090205460ff16806113d557506001600160a01b03841660009081526012602052604090205460ff165b806113f857506001600160a01b03841660009081526013602052604090205460ff165b6114445760405162461bcd60e51b815260206004820152601a60248201527f4f5247414e49534154494f4e204e4f5420564552494649454421000000000000604482015260640161069e565b6001600160a01b0386166000908152600d602052604090205460ff166114ac5760405162461bcd60e51b815260206004820152601660248201527f504552534f4e20444f4553204e4f542045584953542100000000000000000000604482015260640161069e565b6001600160a01b0386166000908152600960209081526040808320815192830190915291815286611582576001600160a01b0386166000908152600a6020526040902060030180546114fd906154f7565b80601f0160208091040260200160405190810160405280929190818152602001828054611529906154f7565b80156115765780601f1061154b57610100808354040283529160200191611576565b820191906000526020600020905b81548152906001019060200180831161155957829003601f168201915b50505050509050611661565b86600114156115b1576001600160a01b0386166000908152600b6020526040902060030180546114fd906154f7565b8660021415611661576001600160a01b0386166000908152600c6020526040902060030180546115e0906154f7565b80601f016020809104026020016040519081016040528092919081815260200182805461160c906154f7565b80156116595780601f1061162e57610100808354040283529160200191611659565b820191906000526020600020905b81548152906001019060200180831161163c57829003601f168201915b505050505090505b60006040518060e00160405280886001600160a01b03168152602001898152602001838152602001868152602001858152602001878152602001428152509050876000141561176f57600883018054600180820183556000928352602092839020845160079093020180546001600160a01b0319166001600160a01b039093169290921782558383015190820155604083015180518493611709926002850192910190614a50565b5060608201518051611725916003840191602090910190614a50565b5060808201518051611741916004840191602090910190614a50565b5060a0820151805161175d916005840191602090910190614a50565b5060c0820151816006015550506118a1565b87600114156117d757600983018054600180820183556000928352602092839020845160079093020180546001600160a01b0319166001600160a01b039093169290921782558383015190820155604083015180518493611709926002850192910190614a50565b87600214156118a157600a83018054600180820183556000928352602092839020845160079093020180546001600160a01b0319166001600160a01b03909316929092178255838301519082015560408301518051849361183f926002850192910190614a50565b506060820151805161185b916003840191602090910190614a50565b5060808201518051611877916004840191602090910190614a50565b5060a08201518051611893916005840191602090910190614a50565b5060c0820151816006015550505b505050505050505050565b6001600160a01b038216600090815260096020526040808220815161016081019092528054606093929190829082906118e4906154f7565b80601f0160208091040260200160405190810160405280929190818152602001828054611910906154f7565b801561195d5780601f106119325761010080835404028352916020019161195d565b820191906000526020600020905b81548152906001019060200180831161194057829003601f168201915b50505050508152602001600182018054611976906154f7565b80601f01602080910402602001604051908101604052809291908181526020018280546119a2906154f7565b80156119ef5780601f106119c4576101008083540402835291602001916119ef565b820191906000526020600020905b8154815290600101906020018083116119d257829003601f168201915b50505050508152602001600282018054611a08906154f7565b80601f0160208091040260200160405190810160405280929190818152602001828054611a34906154f7565b8015611a815780601f10611a5657610100808354040283529160200191611a81565b820191906000526020600020905b815481529060010190602001808311611a6457829003601f168201915b50505050508152602001600382018054611a9a906154f7565b80601f0160208091040260200160405190810160405280929190818152602001828054611ac6906154f7565b8015611b135780601f10611ae857610100808354040283529160200191611b13565b820191906000526020600020905b815481529060010190602001808311611af657829003601f168201915b50505050508152602001600482018054611b2c906154f7565b80601f0160208091040260200160405190810160405280929190818152602001828054611b58906154f7565b8015611ba55780601f10611b7a57610100808354040283529160200191611ba5565b820191906000526020600020905b815481529060010190602001808311611b8857829003601f168201915b50505050508152602001600582018054611bbe906154f7565b80601f0160208091040260200160405190810160405280929190818152602001828054611bea906154f7565b8015611c375780601f10611c0c57610100808354040283529160200191611c37565b820191906000526020600020905b815481529060010190602001808311611c1a57829003601f168201915b50505050508152602001600682018054611c50906154f7565b80601f0160208091040260200160405190810160405280929190818152602001828054611c7c906154f7565b8015611cc95780601f10611c9e57610100808354040283529160200191611cc9565b820191906000526020600020905b815481529060010190602001808311611cac57829003601f168201915b505050918352505060078201546001600160a01b0316602080830191909152600883018054604080518285028101850182528281529401939260009084015b82821015611fac5760008481526020908190206040805160e0810182526007860290920180546001600160a01b0316835260018101549383019390935260028301805492939291840191611d5b906154f7565b80601f0160208091040260200160405190810160405280929190818152602001828054611d87906154f7565b8015611dd45780601f10611da957610100808354040283529160200191611dd4565b820191906000526020600020905b815481529060010190602001808311611db757829003601f168201915b50505050508152602001600382018054611ded906154f7565b80601f0160208091040260200160405190810160405280929190818152602001828054611e19906154f7565b8015611e665780601f10611e3b57610100808354040283529160200191611e66565b820191906000526020600020905b815481529060010190602001808311611e4957829003601f168201915b50505050508152602001600482018054611e7f906154f7565b80601f0160208091040260200160405190810160405280929190818152602001828054611eab906154f7565b8015611ef85780601f10611ecd57610100808354040283529160200191611ef8565b820191906000526020600020905b815481529060010190602001808311611edb57829003601f168201915b50505050508152602001600582018054611f11906154f7565b80601f0160208091040260200160405190810160405280929190818152602001828054611f3d906154f7565b8015611f8a5780601f10611f5f57610100808354040283529160200191611f8a565b820191906000526020600020905b815481529060010190602001808311611f6d57829003601f168201915b5050505050815260200160068201548152505081526020019060010190611d08565b50505050815260200160098201805480602002602001604051908101604052809291908181526020016000905b8282101561227d5760008481526020908190206040805160e0810182526007860290920180546001600160a01b031683526001810154938301939093526002830180549293929184019161202c906154f7565b80601f0160208091040260200160405190810160405280929190818152602001828054612058906154f7565b80156120a55780601f1061207a576101008083540402835291602001916120a5565b820191906000526020600020905b81548152906001019060200180831161208857829003601f168201915b505050505081526020016003820180546120be906154f7565b80601f01602080910402602001604051908101604052809291908181526020018280546120ea906154f7565b80156121375780601f1061210c57610100808354040283529160200191612137565b820191906000526020600020905b81548152906001019060200180831161211a57829003601f168201915b50505050508152602001600482018054612150906154f7565b80601f016020809104026020016040519081016040528092919081815260200182805461217c906154f7565b80156121c95780601f1061219e576101008083540402835291602001916121c9565b820191906000526020600020905b8154815290600101906020018083116121ac57829003601f168201915b505050505081526020016005820180546121e2906154f7565b80601f016020809104026020016040519081016040528092919081815260200182805461220e906154f7565b801561225b5780601f106122305761010080835404028352916020019161225b565b820191906000526020600020905b81548152906001019060200180831161223e57829003601f168201915b5050505050815260200160068201548152505081526020019060010190611fd9565b505050508152602001600a8201805480602002602001604051908101604052809291908181526020016000905b8282101561254e5760008481526020908190206040805160e0810182526007860290920180546001600160a01b03168352600181015493830193909352600283018054929392918401916122fd906154f7565b80601f0160208091040260200160405190810160405280929190818152602001828054612329906154f7565b80156123765780601f1061234b57610100808354040283529160200191612376565b820191906000526020600020905b81548152906001019060200180831161235957829003601f168201915b5050505050815260200160038201805461238f906154f7565b80601f01602080910402602001604051908101604052809291908181526020018280546123bb906154f7565b80156124085780601f106123dd57610100808354040283529160200191612408565b820191906000526020600020905b8154815290600101906020018083116123eb57829003601f168201915b50505050508152602001600482018054612421906154f7565b80601f016020809104026020016040519081016040528092919081815260200182805461244d906154f7565b801561249a5780601f1061246f5761010080835404028352916020019161249a565b820191906000526020600020905b81548152906001019060200180831161247d57829003601f168201915b505050505081526020016005820180546124b3906154f7565b80601f01602080910402602001604051908101604052809291908181526020018280546124df906154f7565b801561252c5780601f106125015761010080835404028352916020019161252c565b820191906000526020600020905b81548152906001019060200180831161250f57829003601f168201915b50505050508152602001600682015481525050815260200190600101906122aa565b50505091525090915050826125695761010001519050612586565b826001141561257e5761012001519050612586565b610140015190505b92915050565b6007818154811061259c57600080fd5b6000918252602090912001546001600160a01b0316905081565b61261c6040518061016001604052806060815260200160608152602001606081526020016060815260200160608152602001606081526020016060815260200160006001600160a01b031681526020016060815260200160608152602001606081525090565b6001600160a01b038216600090815260096020526040908190208151610160810190925280548290829061264f906154f7565b80601f016020809104026020016040519081016040528092919081815260200182805461267b906154f7565b80156126c85780601f1061269d576101008083540402835291602001916126c8565b820191906000526020600020905b8154815290600101906020018083116126ab57829003601f168201915b505050505081526020016001820180546126e1906154f7565b80601f016020809104026020016040519081016040528092919081815260200182805461270d906154f7565b801561275a5780601f1061272f5761010080835404028352916020019161275a565b820191906000526020600020905b81548152906001019060200180831161273d57829003601f168201915b50505050508152602001600282018054612773906154f7565b80601f016020809104026020016040519081016040528092919081815260200182805461279f906154f7565b80156127ec5780601f106127c1576101008083540402835291602001916127ec565b820191906000526020600020905b8154815290600101906020018083116127cf57829003601f168201915b50505050508152602001600382018054612805906154f7565b80601f0160208091040260200160405190810160405280929190818152602001828054612831906154f7565b801561287e5780601f106128535761010080835404028352916020019161287e565b820191906000526020600020905b81548152906001019060200180831161286157829003601f168201915b50505050508152602001600482018054612897906154f7565b80601f01602080910402602001604051908101604052809291908181526020018280546128c3906154f7565b80156129105780601f106128e557610100808354040283529160200191612910565b820191906000526020600020905b8154815290600101906020018083116128f357829003601f168201915b50505050508152602001600582018054612929906154f7565b80601f0160208091040260200160405190810160405280929190818152602001828054612955906154f7565b80156129a25780601f10612977576101008083540402835291602001916129a2565b820191906000526020600020905b81548152906001019060200180831161298557829003601f168201915b505050505081526020016006820180546129bb906154f7565b80601f01602080910402602001604051908101604052809291908181526020018280546129e7906154f7565b8015612a345780601f10612a0957610100808354040283529160200191612a34565b820191906000526020600020905b815481529060010190602001808311612a1757829003601f168201915b505050918352505060078201546001600160a01b0316602080830191909152600883018054604080518285028101850182528281529401939260009084015b82821015612d175760008481526020908190206040805160e0810182526007860290920180546001600160a01b0316835260018101549383019390935260028301805492939291840191612ac6906154f7565b80601f0160208091040260200160405190810160405280929190818152602001828054612af2906154f7565b8015612b3f5780601f10612b1457610100808354040283529160200191612b3f565b820191906000526020600020905b815481529060010190602001808311612b2257829003601f168201915b50505050508152602001600382018054612b58906154f7565b80601f0160208091040260200160405190810160405280929190818152602001828054612b84906154f7565b8015612bd15780601f10612ba657610100808354040283529160200191612bd1565b820191906000526020600020905b815481529060010190602001808311612bb457829003601f168201915b50505050508152602001600482018054612bea906154f7565b80601f0160208091040260200160405190810160405280929190818152602001828054612c16906154f7565b8015612c635780601f10612c3857610100808354040283529160200191612c63565b820191906000526020600020905b815481529060010190602001808311612c4657829003601f168201915b50505050508152602001600582018054612c7c906154f7565b80601f0160208091040260200160405190810160405280929190818152602001828054612ca8906154f7565b8015612cf55780601f10612cca57610100808354040283529160200191612cf5565b820191906000526020600020905b815481529060010190602001808311612cd857829003601f168201915b5050505050815260200160068201548152505081526020019060010190612a73565b50505050815260200160098201805480602002602001604051908101604052809291908181526020016000905b82821015612fe85760008481526020908190206040805160e0810182526007860290920180546001600160a01b0316835260018101549383019390935260028301805492939291840191612d97906154f7565b80601f0160208091040260200160405190810160405280929190818152602001828054612dc3906154f7565b8015612e105780601f10612de557610100808354040283529160200191612e10565b820191906000526020600020905b815481529060010190602001808311612df357829003601f168201915b50505050508152602001600382018054612e29906154f7565b80601f0160208091040260200160405190810160405280929190818152602001828054612e55906154f7565b8015612ea25780601f10612e7757610100808354040283529160200191612ea2565b820191906000526020600020905b815481529060010190602001808311612e8557829003601f168201915b50505050508152602001600482018054612ebb906154f7565b80601f0160208091040260200160405190810160405280929190818152602001828054612ee7906154f7565b8015612f345780601f10612f0957610100808354040283529160200191612f34565b820191906000526020600020905b815481529060010190602001808311612f1757829003601f168201915b50505050508152602001600582018054612f4d906154f7565b80601f0160208091040260200160405190810160405280929190818152602001828054612f79906154f7565b8015612fc65780601f10612f9b57610100808354040283529160200191612fc6565b820191906000526020600020905b815481529060010190602001808311612fa957829003601f168201915b5050505050815260200160068201548152505081526020019060010190612d44565b505050508152602001600a8201805480602002602001604051908101604052809291908181526020016000905b828210156132b95760008481526020908190206040805160e0810182526007860290920180546001600160a01b0316835260018101549383019390935260028301805492939291840191613068906154f7565b80601f0160208091040260200160405190810160405280929190818152602001828054613094906154f7565b80156130e15780601f106130b6576101008083540402835291602001916130e1565b820191906000526020600020905b8154815290600101906020018083116130c457829003601f168201915b505050505081526020016003820180546130fa906154f7565b80601f0160208091040260200160405190810160405280929190818152602001828054613126906154f7565b80156131735780601f1061314857610100808354040283529160200191613173565b820191906000526020600020905b81548152906001019060200180831161315657829003601f168201915b5050505050815260200160048201805461318c906154f7565b80601f01602080910402602001604051908101604052809291908181526020018280546131b8906154f7565b80156132055780601f106131da57610100808354040283529160200191613205565b820191906000526020600020905b8154815290600101906020018083116131e857829003601f168201915b5050505050815260200160058201805461321e906154f7565b80601f016020809104026020016040519081016040528092919081815260200182805461324a906154f7565b80156132975780601f1061326c57610100808354040283529160200191613297565b820191906000526020600020905b81548152906001019060200180831161327a57829003601f168201915b5050505050815260200160068201548152505081526020019060010190613015565b505050915250909392505050565b6009602052600090815260409020805481906132e2906154f7565b80601f016020809104026020016040519081016040528092919081815260200182805461330e906154f7565b801561335b5780601f106133305761010080835404028352916020019161335b565b820191906000526020600020905b81548152906001019060200180831161333e57829003601f168201915b505050505090806001018054613370906154f7565b80601f016020809104026020016040519081016040528092919081815260200182805461339c906154f7565b80156133e95780601f106133be576101008083540402835291602001916133e9565b820191906000526020600020905b8154815290600101906020018083116133cc57829003601f168201915b5050505050908060020180546133fe906154f7565b80601f016020809104026020016040519081016040528092919081815260200182805461342a906154f7565b80156134775780601f1061344c57610100808354040283529160200191613477565b820191906000526020600020905b81548152906001019060200180831161345a57829003601f168201915b50505050509080600301805461348c906154f7565b80601f01602080910402602001604051908101604052809291908181526020018280546134b8906154f7565b80156135055780601f106134da57610100808354040283529160200191613505565b820191906000526020600020905b8154815290600101906020018083116134e857829003601f168201915b50505050509080600401805461351a906154f7565b80601f0160208091040260200160405190810160405280929190818152602001828054613546906154f7565b80156135935780601f1061356857610100808354040283529160200191613593565b820191906000526020600020905b81548152906001019060200180831161357657829003601f168201915b5050505050908060050180546135a8906154f7565b80601f01602080910402602001604051908101604052809291908181526020018280546135d4906154f7565b80156136215780601f106135f657610100808354040283529160200191613621565b820191906000526020600020905b81548152906001019060200180831161360457829003601f168201915b505050505090806006018054613636906154f7565b80601f0160208091040260200160405190810160405280929190818152602001828054613662906154f7565b80156136af5780601f10613684576101008083540402835291602001916136af565b820191906000526020600020905b81548152906001019060200180831161369257829003601f168201915b505050600790930154919250506001600160a01b031688565b3360009081526002602052604081205460ff1615156001146137525760405162461bcd60e51b815260206004820152603660248201527f4f6e6c7920766572696669657220697320616c6c6f77656420746f206f70657260448201527f61746520746869732066756e6374696f6e616c69747900000000000000000000606482015260840161069e565b6001600160a01b0382166000908152600e602052604090205460ff168061379157506001600160a01b03821660009081526010602052604090205460ff165b806137b457506001600160a01b0382166000908152600f602052604090205460ff165b6138005760405162461bcd60e51b815260206004820152600d60248201527f4f7267206e6f7420666f756e6400000000000000000000000000000000000000604482015260640161069e565b3360009081526006602090815260408083206001600160a01b038616845290915290205460ff16156138745760405162461bcd60e51b815260206004820152600d60248201527f416c726561647920566f74656400000000000000000000000000000000000000604482015260640161069e565b3360009081526006602090815260408083206001600160a01b03861684528252808320805460ff19166001908117909155600590925282208054919290916138bd9084906154bd565b90915550506003546138d1906002906154d5565b6001600160a01b0383166000908152600560205260409020541061084e5761084e82614566565b600b6020526000908152604090208054600182015460028301805492936001600160a01b0390921692610889906154f7565b600080546001600160a01b031633146139ab5760405162461bcd60e51b815260206004820152603360248201527f6f6e6c792061646d696e20697320616c6c6f77656420746f206f70657261746560448201527f20746869732066756e6374696f6e616c69747900000000000000000000000000606482015260840161069e565b6001600160a01b03821660009081526002602052604090205460ff1615613a145760405162461bcd60e51b815260206004820152600f60248201527f20416c7265616479206578697374730000000000000000000000000000000000604482015260640161069e565b600160036000828254613a2791906154bd565b9091555050506001600160a01b03166000818152600260205260408120805460ff1916600190811790915580548082018255918190527fb10e2d527612073b26eecdfd717e6a320cf44b4afac2b0732d9fcbe2b7fa0cf690910180546001600160a01b03191690921790915590565b600080546001600160a01b0383811691161415613ab557506001919050565b6001600160a01b0382166000908152600d602052604090205460ff16151560011415613ae357506002919050565b6001600160a01b0382166000908152600e602052604090205460ff16151560011415613b1157506003919050565b6001600160a01b03821660009081526010602052604090205460ff16151560011415613b3f57506004919050565b6001600160a01b0382166000908152600f602052604090205460ff16151560011415613b6d57506005919050565b6001600160a01b03821660009081526002602052604090205460ff1615613b9657506006919050565b506000919050565b600a6020526000908152604090208054600182015460028301805492936001600160a01b0390921692610889906154f7565b600080546001600160a01b03163314613c515760405162461bcd60e51b815260206004820152603360248201527f6f6e6c792061646d696e20697320616c6c6f77656420746f206f70657261746560448201527f20746869732066756e6374696f6e616c69747900000000000000000000000000606482015260840161069e565b6001600160a01b03821660009081526002602052604090205460ff16613cb95760405162461bcd60e51b815260206004820152600b60248201527f204e6f7420657869737473000000000000000000000000000000000000000000604482015260640161069e565b6001600160a01b0382166000908152600260205260408120805460ff191690556003805460019290613cec908490615532565b90915550620f4240905060005b600154811015613d5557836001600160a01b031660018281548110613d2057613d20615549565b6000918252602090912001546001600160a01b03161415613d4357809150613d55565b80613d4d8161555f565b915050613cf9565b5080620f42401415613da95760405162461bcd60e51b815260206004820152601460248201527f5665726966696572206e6f742070726573656e74000000000000000000000000604482015260640161069e565b60018054613db8908290615532565b81548110613dc857613dc8615549565b600091825260209091200154600180546001600160a01b039092169183908110613df457613df4615549565b9060005260206000200160006101000a8154816001600160a01b0302191690836001600160a01b031602179055506001805480613e3357613e3361557a565b600082815260209020600019908201810180546001600160a01b031916905501905550600192915050565b6001818154811061259c57600080fd5b60006040518061016001604052808a81526020018c6001600160a01b031681526020018981526020018b815260200188815260200160001515815260200187815260200186815260200185815260200184815260200183815250905088600014156140a3576001600160a01b038b8116600090815260046020908152604080832083905560058252808320839055600a82529182902084518155848201516001820180546001600160a01b0319169190951617909355908301518051849392613f3e926002850192910190614a50565b5060608201518051613f5a916003840191602090910190614a50565b5060808201518051613f76916004840191602090910190614a50565b5060a082015160058201805460ff191691151591909117905560c08201518051613faa916006840191602090910190614a50565b5060e08201518051613fc6916007840191602090910190614a50565b506101008201518051613fe3916008840191602090910190614a50565b506101208201518051614000916009840191602090910190614a50565b50610140820151805161401d91600a840191602090910190614a50565b5050506001600160a01b038b166000818152600e60205260408120805460ff191660019081179091556007805480830182559083527fa66cc928b5edb82af9bd49922954155ab7b0942694bea4ce44661d9a8736c6880180546001600160a01b031916909317909255600880549091906140989084906154bd565b909155506144879050565b8860011415614271576001600160a01b038b8116600090815260046020908152604080832083905560058252808320839055600b82529182902084518155848201516001820180546001600160a01b0319169190951617909355908301518051849392614117926002850192910190614a50565b5060608201518051614133916003840191602090910190614a50565b506080820151805161414f916004840191602090910190614a50565b5060a082015160058201805460ff191691151591909117905560c08201518051614183916006840191602090910190614a50565b5060e0820151805161419f916007840191602090910190614a50565b5061010082015180516141bc916008840191602090910190614a50565b5061012082015180516141d9916009840191602090910190614a50565b5061014082015180516141f691600a840191602090910190614a50565b5050506001600160a01b038b166000818152600f60205260408120805460ff191660019081179091556007805480830182559083527fa66cc928b5edb82af9bd49922954155ab7b0942694bea4ce44661d9a8736c6880180546001600160a01b031916909317909255600880549091906140989084906154bd565b886002141561443f576001600160a01b038b8116600090815260046020908152604080832083905560058252808320839055600c82529182902084518155848201516001820180546001600160a01b03191691909516179093559083015180518493926142e5926002850192910190614a50565b5060608201518051614301916003840191602090910190614a50565b506080820151805161431d916004840191602090910190614a50565b5060a082015160058201805460ff191691151591909117905560c08201518051614351916006840191602090910190614a50565b5060e0820151805161436d916007840191602090910190614a50565b50610100820151805161438a916008840191602090910190614a50565b5061012082015180516143a7916009840191602090910190614a50565b5061014082015180516143c491600a840191602090910190614a50565b5050506001600160a01b038b166000818152601060205260408120805460ff191660019081179091556007805480830182559083527fa66cc928b5edb82af9bd49922954155ab7b0942694bea4ce44661d9a8736c6880180546001600160a01b031916909317909255600880549091906140989084906154bd565b60405162461bcd60e51b815260206004820152600b60248201527f57726f6e67205479706521000000000000000000000000000000000000000000604482015260640161069e565b5050505050505050505050565b61449d816145ed565b6001600160a01b0381166000908152600e602052604090205460ff16156144ca576144c781614719565b50565b6001600160a01b03811660009081526010602052604090205460ff16156144f4576144c7816147c0565b6001600160a01b0381166000908152600f602052604090205460ff161561451e576144c781614867565b60405162461bcd60e51b815260206004820152600c60248201527f4e6f206f726720666f756e640000000000000000000000000000000000000000604482015260640161069e565b61456f816145ed565b6001600160a01b0381166000908152600e602052604090205460ff1615614599576144c78161490e565b6001600160a01b03811660009081526010602052604090205460ff16156145c3576144c7816147c0565b6001600160a01b0381166000908152600f602052604090205460ff161561451e576144c7816149af565b60005b60075481101561471557816001600160a01b03166007828154811061461757614617615549565b6000918252602090912001546001600160a01b03161415614703576007805461464290600190615532565b8154811061465257614652615549565b600091825260209091200154600780546001600160a01b03909216918390811061467e5761467e615549565b9060005260206000200160006101000a8154816001600160a01b0302191690836001600160a01b0316021790555060078054806146bd576146bd61557a565b6001900381819060005260206000200160006101000a8154906001600160a01b03021916905590556001600860008282546146f89190615532565b909155506147159050565b8061470d8161555f565b9150506145f0565b5050565b6001600160a01b0381166000908152600e602052604090205460ff166147815760405162461bcd60e51b815260206004820152601c60248201527f4f5247414e49534154494f4e20444f4553204e4f542045584953542100000000604482015260640161069e565b6001600160a01b03166000908152600a602090815260408083206005018054600160ff1991821681179092556011909352922080549091169091179055565b6001600160a01b03811660009081526010602052604090205460ff166148285760405162461bcd60e51b815260206004820152601c60248201527f4f5247414e49534154494f4e20444f4553204e4f542045584953542100000000604482015260640161069e565b6001600160a01b03166000908152600c602090815260408083206005018054600160ff1991821681179092556013909352922080549091169091179055565b6001600160a01b0381166000908152600f602052604090205460ff166148cf5760405162461bcd60e51b815260206004820152601c60248201527f4f5247414e49534154494f4e20444f4553204e4f542045584953542100000000604482015260640161069e565b6001600160a01b03166000908152600b602090815260408083206005018054600160ff1991821681179092556012909352922080549091169091179055565b6001600160a01b0381166000908152600e602052604090205460ff166149765760405162461bcd60e51b815260206004820152601c60248201527f4f5247414e49534154494f4e20444f4553204e4f542045584953542100000000604482015260640161069e565b6001600160a01b03166000908152600a60209081526040808320600501805460ff19908116909155601190925290912080549091169055565b6001600160a01b0381166000908152600f602052604090205460ff16614a175760405162461bcd60e51b815260206004820152601c60248201527f4f5247414e49534154494f4e20444f4553204e4f542045584953542100000000604482015260640161069e565b6001600160a01b03166000908152600b60209081526040808320600501805460ff19908116909155601290925290912080549091169055565b828054614a5c906154f7565b90600052602060002090601f016020900481019282614a7e5760008555614ac4565b82601f10614a9757805160ff1916838001178555614ac4565b82800160010185558215614ac4579182015b82811115614ac4578251825591602001919060010190614aa9565b50614ad0929150614ad4565b5090565b5b80821115614ad05760008155600101614ad5565b80356001600160a01b038116811461085257600080fd5b634e487b7160e01b600052604160045260246000fd5b600082601f830112614b2757600080fd5b813567ffffffffffffffff80821115614b4257614b42614b00565b604051601f8301601f19908116603f01168101908282118183101715614b6a57614b6a614b00565b81604052838152866020858801011115614b8357600080fd5b836020870160208301376000602085830101528094505050505092915050565b600080600080600080600080610100898b031215614bc057600080fd5b614bc989614ae9565b9750602089013567ffffffffffffffff80821115614be657600080fd5b614bf28c838d01614b16565b985060408b0135915080821115614c0857600080fd5b614c148c838d01614b16565b975060608b0135915080821115614c2a57600080fd5b614c368c838d01614b16565b965060808b0135915080821115614c4c57600080fd5b614c588c838d01614b16565b955060a08b0135915080821115614c6e57600080fd5b614c7a8c838d01614b16565b945060c08b0135915080821115614c9057600080fd5b614c9c8c838d01614b16565b935060e08b0135915080821115614cb257600080fd5b50614cbf8b828c01614b16565b9150509295985092959890939650565b600060208284031215614ce157600080fd5b614cea82614ae9565b9392505050565b6000815180845260005b81811015614d1757602081850181015186830182015201614cfb565b81811115614d29576000602083870101525b50601f01601f19169290920160200192915050565b8b81526001600160a01b038b1660208201526000610160806040840152614d678184018d614cf1565b90508281036060840152614d7b818c614cf1565b90508281036080840152614d8f818b614cf1565b89151560a0850152905082810360c0840152614dab8189614cf1565b905082810360e0840152614dbf8188614cf1565b9050828103610100840152614dd48187614cf1565b9050828103610120840152614de98186614cf1565b9050828103610140840152614dfe8185614cf1565b9e9d5050505050505050505050505050565b602081528151602082015260006020830151614e3760408401826001600160a01b03169052565b506040830151610160806060850152614e54610180850183614cf1565b91506060850151601f1980868503016080870152614e728483614cf1565b935060808701519150808685030160a0870152614e8f8483614cf1565b935060a08701519150614ea660c087018315159052565b60c08701519150808685030160e0870152614ec18483614cf1565b935060e08701519150610100818786030181880152614ee08584614cf1565b945080880151925050610120818786030181880152614eff8584614cf1565b945080880151925050610140818786030181880152614f1e8584614cf1565b908801518782039092018488015293509050614f3a8382614cf1565b9695505050505050565b60008060008060008060c08789031215614f5d57600080fd5b614f6687614ae9565b955060208701359450614f7b60408801614ae9565b9350606087013567ffffffffffffffff80821115614f9857600080fd5b614fa48a838b01614b16565b94506080890135915080821115614fba57600080fd5b614fc68a838b01614b16565b935060a0890135915080821115614fdc57600080fd5b50614fe989828a01614b16565b9150509295509295509295565b6000806040838503121561500957600080fd5b61501283614ae9565b946020939093013593505050565b600081518084526020808501808196508360051b8101915082860160005b858110156150ee578284038952815160e06001600160a01b0382511686528682015187870152604080830151828289015261507b83890182614cf1565b92505050606080830151878303828901526150968382614cf1565b92505050608080830151878303828901526150b18382614cf1565b9250505060a080830151878303828901526150cc8382614cf1565b60c094850151989094019790975250509885019893509084019060010161503e565b5091979650505050505050565b602081526000614cea6020830184615020565b60006020828403121561512057600080fd5b5035919050565b6020815260008251610160806020850152615146610180850183614cf1565b91506020850151601f19808685030160408701526151648483614cf1565b935060408701519150808685030160608701526151818483614cf1565b9350606087015191508086850301608087015261519e8483614cf1565b935060808701519150808685030160a08701526151bb8483614cf1565b935060a08701519150808685030160c08701526151d88483614cf1565b935060c08701519150808685030160e08701526151f58483614cf1565b935060e08701519150610100615215818801846001600160a01b03169052565b808801519250506101208187860301818801526152328584615020565b9450808801519250506101408187860301818801526152518584615020565b908801518782039092018488015293509050614f3a8382615020565b60006101008083526152818184018c614cf1565b90508281036020840152615295818b614cf1565b905082810360408401526152a9818a614cf1565b905082810360608401526152bd8189614cf1565b905082810360808401526152d18188614cf1565b905082810360a08401526152e58187614cf1565b905082810360c08401526152f98186614cf1565b9150506001600160a01b03831660e08301529998505050505050505050565b6000806000806000806000806000806101408b8d03121561533857600080fd5b6153418b614ae9565b995060208b013567ffffffffffffffff8082111561535e57600080fd5b61536a8e838f01614b16565b9a5060408d0135995060608d013591508082111561538757600080fd5b6153938e838f01614b16565b985060808d01359150808211156153a957600080fd5b6153b58e838f01614b16565b975060a08d01359150808211156153cb57600080fd5b6153d78e838f01614b16565b965060c08d01359150808211156153ed57600080fd5b6153f98e838f01614b16565b955060e08d013591508082111561540f57600080fd5b61541b8e838f01614b16565b94506101008d013591508082111561543257600080fd5b61543e8e838f01614b16565b93506101208d013591508082111561545557600080fd5b506154628d828e01614b16565b9150509295989b9194979a5092959850565b6000806040838503121561548757600080fd5b61549083614ae9565b915061549e60208401614ae9565b90509250929050565b634e487b7160e01b600052601160045260246000fd5b600082198211156154d0576154d06154a7565b500190565b6000826154f257634e487b7160e01b600052601260045260246000fd5b500490565b600181811c9082168061550b57607f821691505b6020821081141561552c57634e487b7160e01b600052602260045260246000fd5b50919050565b600082821015615544576155446154a7565b500390565b634e487b7160e01b600052603260045260246000fd5b6000600019821415615573576155736154a7565b5060010190565b634e487b7160e01b600052603160045260246000fdfea264697066735822122033387894326786ae73d367088e893d5299e01f25325057c4319ef66b44a0745764736f6c634300080b0033",
  "immutableReferences": {},
  "source": "//SPDX-License-Identifier: UNLICENSED\r\npragma solidity >=0.4.21 <8.10.0;\r\npragma experimental ABIEncoderV2;\r\n\r\ncontract Aadhar {\r\n\r\n\r\n    address admin;\r\n       address[] public verifiersArr;\r\n    mapping(address => bool) verifiers;\r\n    uint public verifierCount = 0;\r\n    mapping(address => uint) public upvoteCount;\r\n    mapping(address => uint) public downvoteCount;\r\n  \r\n    mapping( address => mapping( address => bool ) ) public voteStatus;\r\n    \r\n\r\n\r\n    constructor()  \r\n    {\r\n        admin = msg.sender;\r\n    }\r\n\r\n    modifier isAdmin {\r\n        require(\r\n            admin == msg.sender,\r\n            \"only admin is allowed to operate this functionality\"\r\n        );\r\n        _;\r\n    }\r\n\r\n   \r\n    modifier isVerifier {\r\n         require(\r\n            verifiers[msg.sender]==true,\r\n            \"Only verifier is allowed to operate this functionality\"\r\n        );\r\n        _;\r\n        \r\n    }\r\n\r\n    address[] public activeRequests;\r\n    uint public activeRequestsLength =0;\r\n    struct Organization {\r\n        uint type_org;\r\n        address orgAddress;\r\n        string pic_hash;\r\n        string name;\r\n        string contactNo;\r\n        bool isVerified;\r\n        string location;\r\n        string about;\r\n        string phyAdd;\r\n        string email;\r\n        string org_website_link;\r\n    }\r\n\r\n\r\n\r\n    struct Person_data {\r\n         address org_address;\r\n        uint org_type;\r\n        string org_name;\r\n        string doc_title;\r\n        string Description;\r\n        string Hash; //hash of the doc\r\n        uint256 timeStamp; //use \"now\" to store current time\r\n    }\r\n\r\n\r\n    struct Person {\r\n         string name;\r\n        string pic_hash;\r\n        string AadharNo;\r\n        string dob;\r\n        string contactNo;\r\n        string Gender;\r\n        string phyAddress;\r\n        address ethAddress;\r\n        Person_data[] Edu_data;\r\n        Person_data[] Crime_data;\r\n        Person_data[] Med_data;\r\n    }\r\n\r\n    mapping(address => Person) public address_person_map;\r\n    mapping(address => Organization) public address_edu_map;\r\n    mapping(address => Organization) public address_crime_map;\r\n    mapping(address => Organization) public address_med_map;\r\n\r\n    mapping(address => bool) public exists_address_person_map;\r\n    mapping(address => bool) public exists_address_edu_map;\r\n    mapping(address => bool) public exists_address_crime_map;\r\n    mapping(address => bool) public exists_address_med_map;\r\n\r\n    mapping(address => bool) public verified_address_edu_map;\r\n    mapping(address => bool) public verified_address_crime_map;\r\n    mapping(address => bool) public verified_address_med_map;\r\n\r\n\r\n    function addVerifier(address verifier) public isAdmin returns(bool){\r\n         if(verifiers[verifier]){\r\n            revert(\" Already exists\");\r\n        }\r\n         verifierCount +=1;\r\n        verifiers[verifier]=true;\r\n        verifiersArr.push(verifier);\r\n        return true;\r\n\r\n    }\r\n    function removeVerifier(address verifier) public isAdmin returns(bool){\r\n\r\n         if(!verifiers[verifier]){\r\n            revert(\" Not exists\");\r\n        }\r\n        verifiers[verifier]  = false;\r\n        delete verifiers[verifier];\r\n         verifierCount -=1;\r\n            uint256 ind = 1000000;\r\n        for (uint256 i = 0; i < verifiersArr.length; i++) {\r\n            if (verifiersArr[i] == verifier) {\r\n                ind = i;\r\n                break;\r\n            }\r\n        }\r\n        if (ind == 1000000) revert(\"Verifier not present\");\r\n        verifiersArr[ind] = verifiersArr[verifiersArr.length - 1];\r\n        verifiersArr.pop();\r\n    \r\n        return true;\r\n\r\n    }\r\n\r\n\r\n    function registerOrg (\r\n        address org_address,\r\n        string memory name,\r\n        uint type_org,\r\n        string memory pic_hash,\r\n        string memory contactNo,\r\n        string memory location,\r\n        string memory about,\r\n        string memory phyAdd,\r\n        string memory email,\r\n        string memory website_link\r\n) public {\r\n            Organization memory org = Organization(type_org,org_address, pic_hash, name, contactNo, false, location, about, phyAdd, email, website_link);\r\n            if(type_org == 0){\r\n                \r\n                upvoteCount[org_address] = 0;\r\n                downvoteCount[org_address]=0;\r\n                address_edu_map[org_address] = org;\r\n                exists_address_edu_map[org_address] = true;\r\n                activeRequests.push(org_address);\r\n                activeRequestsLength +=1;\r\n               \r\n            } else if (type_org == 1){\r\n               \r\n                  upvoteCount[org_address] = 0;\r\n                downvoteCount[org_address]=0;\r\n                address_crime_map[org_address] = org;\r\n                exists_address_crime_map[org_address] = true;\r\n                 activeRequests.push(org_address);\r\n                 activeRequestsLength +=1;\r\n               \r\n            } else if(type_org==2){\r\n               \r\n                  upvoteCount[org_address] = 0;\r\n                downvoteCount[org_address]=0;\r\n                address_med_map[org_address] = org;\r\n                exists_address_med_map[org_address] = true;\r\n                 activeRequests.push(org_address);\r\n                activeRequestsLength +=1;\r\n            }else{\r\n                revert(\"Wrong Type!\");\r\n            }\r\n\r\n          \r\n        }\r\n\r\n  \r\n    function removeRequest(address org) internal {\r\n    \r\n        for(uint i=0;i<activeRequests.length;i++)\r\n        {\r\n            if(activeRequests[i]==org)\r\n            {\r\n                activeRequests[i]=activeRequests[activeRequests.length-1];\r\n                activeRequests.pop();\r\n                activeRequestsLength -=1;\r\n                break;\r\n            }\r\n        }\r\n        return;\r\n\r\n    }\r\n\r\n    function registerPerson(\r\n      address person_address,\r\n        string memory pic_hash,\r\n        string memory name,\r\n        string memory Gender,\r\n        string memory AadharNo,\r\n        string memory phyAddress,\r\n        string memory dob,\r\n        string memory contactNo\r\n    ) public {\r\n        Person storage per = address_person_map[person_address];\r\n        per.name = name;\r\n        per.pic_hash = pic_hash;\r\n        per.Gender = Gender;\r\n        per.AadharNo = AadharNo;\r\n        per.dob = dob;\r\n        per.ethAddress = person_address;\r\n        per.phyAddress = phyAddress;\r\n        per.contactNo = contactNo;\r\n\r\n        exists_address_person_map[person_address] = true;\r\n    }\r\n\r\n    function getPerson(address person_address) public view returns (Person memory){\r\n        return address_person_map[person_address];\r\n    }\r\n\r\n    function getOrg(address org_address) public view returns (Organization memory){\r\n        if(exists_address_edu_map[org_address]){ return address_edu_map[org_address]; }\r\n        else if(exists_address_med_map[org_address]){ return address_med_map[org_address]; }\r\n        else if(exists_address_crime_map[org_address]){ return address_crime_map[org_address]; }\r\n        return address_edu_map[org_address];\r\n    }\r\n\r\n    function getDocsList(address user_address, uint org_type) public view returns (Person_data [] memory){\r\n        Person memory user = address_person_map[user_address];\r\n        if(org_type == 0){ return user.Edu_data; }\r\n        else if(org_type == 1){ return user.Crime_data; }\r\n        else{ return user.Med_data; }\r\n    }\r\n\r\n    function checkRole(address my_address) public view returns (uint256) {\r\n        if(my_address == admin) {return 1;}\r\n        if(exists_address_person_map[my_address] == true){ return 2; }\r\n        if(exists_address_edu_map[my_address] == true){ return 3; }\r\n        if(exists_address_med_map[my_address] == true){ return 4; }\r\n        if(exists_address_crime_map[my_address] == true){ return 5; }\r\n        if(verifiers[my_address]){return 6;}\r\n        return 0;\r\n    }\r\n\r\n    function addPersonDoc(\r\n        address person_address,\r\n        uint org_type,\r\n        address org_address,\r\n        string memory doc_hash,\r\n        string memory doc_title,\r\n        string memory Description\r\n    ) public {\r\n        require(\r\n            verified_address_edu_map[org_address] ||\r\n                verified_address_crime_map[org_address] ||\r\n                verified_address_med_map[org_address],\r\n            \"ORGANISATION NOT VERIFIED!\"\r\n        );\r\n        require(\r\n            exists_address_person_map[person_address],\r\n            \"PERSON DOES NOT EXIST!\"\r\n        );\r\n        Person storage per = address_person_map[person_address];\r\n        string memory org_name = \"\";\r\n        if(org_type == 0){ org_name = address_edu_map[org_address].name; }\r\n        else if(org_type == 1){ org_name = address_crime_map[org_address].name; }\r\n        else if(org_type == 2){ org_name = address_med_map[org_address].name; }\r\n        Person_data memory tempData = Person_data(\r\n                org_address,\r\n                org_type,\r\n                org_name,\r\n                doc_title,\r\n                Description,\r\n                doc_hash,\r\n                block.timestamp\r\n        );\r\n        if(org_type == 0){ per.Edu_data.push(tempData); }\r\n        else if(org_type == 1){ per.Crime_data.push(tempData); }\r\n        else if(org_type == 2){ per.Med_data.push(tempData); }\r\n        \r\n    }\r\n\r\n  \r\n     function upvoteRequest(address org) public isVerifier returns(bool){\r\n        \r\n        if (!(exists_address_edu_map[org]  || exists_address_med_map[org] || exists_address_crime_map[org]) ){\r\n            revert(\"Org not found\");\r\n        }\r\n        if(voteStatus[msg.sender][org]){\r\n            revert(\"Already Voted\");\r\n        }\r\n        \r\n        voteStatus[msg.sender][org]=true;\r\n        upvoteCount[org]+=1;\r\n        if(upvoteCount[org]>verifierCount/2)\r\n            verifyOrg(org);\r\n        return true;\r\n\r\n\r\n    }\r\n\r\n    function downvoteRequest(address org) public isVerifier returns(bool){\r\n       if (!(exists_address_edu_map[org]  || exists_address_med_map[org] || exists_address_crime_map[org]) ){\r\n            revert(\"Org not found\");\r\n        }\r\n        if(voteStatus[msg.sender][org]){\r\n            revert(\"Already Voted\");\r\n        }\r\n        voteStatus[msg.sender][org]=true;\r\n        downvoteCount[org]+=1;\r\n        if(downvoteCount[org]>= verifierCount/2)\r\n            unverifyOrg(org);\r\n        return true;\r\n\r\n    }\r\n\r\n\r\n    function verifyOrg(address org_address) internal {\r\n        removeRequest(org_address);\r\n        if(exists_address_edu_map[org_address]){ verifyEduOrg(org_address); }\r\n        else if(exists_address_med_map[org_address]){ verifyMedOrg(org_address); }\r\n        else if(exists_address_crime_map[org_address]){ verifyCrimeOrg(org_address); }\r\n        else{\r\n            revert(\"No org found\");\r\n        }\r\n    }\r\n\r\n    function unverifyOrg(address org_address) internal {\r\n        removeRequest(org_address);\r\n        if(exists_address_edu_map[org_address]){ unverifyEduOrg(org_address); }\r\n        else if(exists_address_med_map[org_address]){ unverifyMedOrg(org_address); }\r\n        else if(exists_address_crime_map[org_address]){ unverifyCrimeOrg(org_address); }\r\n        else{\r\n            revert(\"No org found\");\r\n        }\r\n    }\r\n\r\n    function verifyEduOrg(address org_address) internal {\r\n        require(\r\n            exists_address_edu_map[org_address],\r\n            \"ORGANISATION DOES NOT EXIST!\"\r\n        );\r\n        Organization storage temporg = address_edu_map[org_address];\r\n        temporg.isVerified = true;\r\n        verified_address_edu_map[org_address] = true;\r\n    }\r\n\r\n    function unverifyEduOrg(address org_address) internal {\r\n        require(\r\n            exists_address_edu_map[org_address],\r\n            \"ORGANISATION DOES NOT EXIST!\"\r\n        );\r\n        Organization storage temporg = address_edu_map[org_address];\r\n        temporg.isVerified = false;\r\n        verified_address_edu_map[org_address] = false;\r\n    }\r\n\r\n    function verifyCrimeOrg(address org_address) internal {\r\n        require(\r\n            exists_address_crime_map[org_address],\r\n            \"ORGANISATION DOES NOT EXIST!\"\r\n        );\r\n        Organization storage temporg = address_crime_map[org_address];\r\n        temporg.isVerified = true;\r\n        verified_address_crime_map[org_address] = true;\r\n    }\r\n\r\n    function unverifyCrimeOrg(address org_address)internal {\r\n        require(\r\n            exists_address_crime_map[org_address],\r\n            \"ORGANISATION DOES NOT EXIST!\"\r\n        );\r\n        Organization storage temporg = address_crime_map[org_address];\r\n        temporg.isVerified = false;\r\n        verified_address_crime_map[org_address] = false;\r\n    }\r\n\r\n    function verifyMedOrg(address org_address) internal {\r\n        require(\r\n            exists_address_med_map[org_address],\r\n            \"ORGANISATION DOES NOT EXIST!\"\r\n        );\r\n        Organization storage temporg = address_med_map[org_address];\r\n        temporg.isVerified = true;\r\n        verified_address_med_map[org_address] = true;\r\n    }\r\n\r\n    function unverifyMedOrg(address org_address) internal {\r\n        require(\r\n            exists_address_med_map[org_address],\r\n            \"ORGANISATION DOES NOT EXIST!\"\r\n        );\r\n        Organization storage temporg = address_med_map[org_address];\r\n        temporg.isVerified = true;\r\n        verified_address_med_map[org_address] = true;\r\n    }\r\n\r\n   \r\n}",
  "sourcePath": "C:\\Users\\maitr\\Documents\\GitHub\\DocVerify\\contracts\\Aadhar.sol",
  "compiler": {
    "name": "solc",
    "version": "0.8.11+commit.d7f03943.Emscripten.clang"
  },
  "schemaVersion": "3.4.4",
  "updatedAt": "2023-05-01T12:23:29.650Z",
  "networkType": "ethereum",
  "devdoc": {
    "kind": "dev",
    "methods": {},
    "version": 1
  },
  "userdoc": {
    "kind": "user",
    "methods": {},
    "version": 1
  }
}