{
  "contractName": "Aadhar",
  "abi": [
    {
      "inputs": [],
      "stateMutability": "nonpayable",
      "type": "constructor"
    },
    {
      "inputs": [
        {
          "internalType": "uint256",
          "name": "",
          "type": "uint256"
        }
      ],
      "name": "activeRequests",
      "outputs": [
        {
          "internalType": "address",
          "name": "",
          "type": "address"
        }
      ],
      "stateMutability": "view",
      "type": "function",
      "constant": true
    },
    {
      "inputs": [],
      "name": "activeRequestsLength",
      "outputs": [
        {
          "internalType": "uint256",
          "name": "",
          "type": "uint256"
        }
      ],
      "stateMutability": "view",
      "type": "function",
      "constant": true
    },
    {
      "inputs": [
        {
          "internalType": "address",
          "name": "",
          "type": "address"
        }
      ],
      "name": "address_crime_map",
      "outputs": [
        {
          "internalType": "uint256",
          "name": "type_org",
          "type": "uint256"
        },
        {
          "internalType": "address",
          "name": "orgAddress",
          "type": "address"
        },
        {
          "internalType": "string",
          "name": "pic_hash",
          "type": "string"
        },
        {
          "internalType": "string",
          "name": "name",
          "type": "string"
        },
        {
          "internalType": "string",
          "name": "contactNo",
          "type": "string"
        },
        {
          "internalType": "bool",
          "name": "isVerified",
          "type": "bool"
        },
        {
          "internalType": "bool",
          "name": "isRejected",
          "type": "bool"
        },
        {
          "internalType": "string",
          "name": "about",
          "type": "string"
        },
        {
          "internalType": "string",
          "name": "phyAdd",
          "type": "string"
        },
        {
          "internalType": "string",
          "name": "email",
          "type": "string"
        }
      ],
      "stateMutability": "view",
      "type": "function",
      "constant": true
    },
    {
      "inputs": [
        {
          "internalType": "address",
          "name": "",
          "type": "address"
        }
      ],
      "name": "address_edu_map",
      "outputs": [
        {
          "internalType": "uint256",
          "name": "type_org",
          "type": "uint256"
        },
        {
          "internalType": "address",
          "name": "orgAddress",
          "type": "address"
        },
        {
          "internalType": "string",
          "name": "pic_hash",
          "type": "string"
        },
        {
          "internalType": "string",
          "name": "name",
          "type": "string"
        },
        {
          "internalType": "string",
          "name": "contactNo",
          "type": "string"
        },
        {
          "internalType": "bool",
          "name": "isVerified",
          "type": "bool"
        },
        {
          "internalType": "bool",
          "name": "isRejected",
          "type": "bool"
        },
        {
          "internalType": "string",
          "name": "about",
          "type": "string"
        },
        {
          "internalType": "string",
          "name": "phyAdd",
          "type": "string"
        },
        {
          "internalType": "string",
          "name": "email",
          "type": "string"
        }
      ],
      "stateMutability": "view",
      "type": "function",
      "constant": true
    },
    {
      "inputs": [
        {
          "internalType": "address",
          "name": "",
          "type": "address"
        }
      ],
      "name": "address_med_map",
      "outputs": [
        {
          "internalType": "uint256",
          "name": "type_org",
          "type": "uint256"
        },
        {
          "internalType": "address",
          "name": "orgAddress",
          "type": "address"
        },
        {
          "internalType": "string",
          "name": "pic_hash",
          "type": "string"
        },
        {
          "internalType": "string",
          "name": "name",
          "type": "string"
        },
        {
          "internalType": "string",
          "name": "contactNo",
          "type": "string"
        },
        {
          "internalType": "bool",
          "name": "isVerified",
          "type": "bool"
        },
        {
          "internalType": "bool",
          "name": "isRejected",
          "type": "bool"
        },
        {
          "internalType": "string",
          "name": "about",
          "type": "string"
        },
        {
          "internalType": "string",
          "name": "phyAdd",
          "type": "string"
        },
        {
          "internalType": "string",
          "name": "email",
          "type": "string"
        }
      ],
      "stateMutability": "view",
      "type": "function",
      "constant": true
    },
    {
      "inputs": [
        {
          "internalType": "address",
          "name": "",
          "type": "address"
        }
      ],
      "name": "address_person_map",
      "outputs": [
        {
          "internalType": "string",
          "name": "name",
          "type": "string"
        },
        {
          "internalType": "string",
          "name": "pic_hash",
          "type": "string"
        },
        {
          "internalType": "string",
          "name": "AadharNo",
          "type": "string"
        },
        {
          "internalType": "string",
          "name": "dob",
          "type": "string"
        },
        {
          "internalType": "string",
          "name": "contactNo",
          "type": "string"
        },
        {
          "internalType": "string",
          "name": "Gender",
          "type": "string"
        },
        {
          "internalType": "string",
          "name": "phyAddress",
          "type": "string"
        },
        {
          "internalType": "address",
          "name": "ethAddress",
          "type": "address"
        }
      ],
      "stateMutability": "view",
      "type": "function",
      "constant": true
    },
    {
      "inputs": [
        {
          "internalType": "address",
          "name": "",
          "type": "address"
        }
      ],
      "name": "downvoteCount",
      "outputs": [
        {
          "internalType": "uint256",
          "name": "",
          "type": "uint256"
        }
      ],
      "stateMutability": "view",
      "type": "function",
      "constant": true
    },
    {
      "inputs": [
        {
          "internalType": "address",
          "name": "",
          "type": "address"
        }
      ],
      "name": "exists_address_crime_map",
      "outputs": [
        {
          "internalType": "bool",
          "name": "",
          "type": "bool"
        }
      ],
      "stateMutability": "view",
      "type": "function",
      "constant": true
    },
    {
      "inputs": [
        {
          "internalType": "address",
          "name": "",
          "type": "address"
        }
      ],
      "name": "exists_address_edu_map",
      "outputs": [
        {
          "internalType": "bool",
          "name": "",
          "type": "bool"
        }
      ],
      "stateMutability": "view",
      "type": "function",
      "constant": true
    },
    {
      "inputs": [
        {
          "internalType": "address",
          "name": "",
          "type": "address"
        }
      ],
      "name": "exists_address_med_map",
      "outputs": [
        {
          "internalType": "bool",
          "name": "",
          "type": "bool"
        }
      ],
      "stateMutability": "view",
      "type": "function",
      "constant": true
    },
    {
      "inputs": [
        {
          "internalType": "address",
          "name": "",
          "type": "address"
        }
      ],
      "name": "exists_address_person_map",
      "outputs": [
        {
          "internalType": "bool",
          "name": "",
          "type": "bool"
        }
      ],
      "stateMutability": "view",
      "type": "function",
      "constant": true
    },
    {
      "inputs": [
        {
          "internalType": "address",
          "name": "",
          "type": "address"
        }
      ],
      "name": "upvoteCount",
      "outputs": [
        {
          "internalType": "uint256",
          "name": "",
          "type": "uint256"
        }
      ],
      "stateMutability": "view",
      "type": "function",
      "constant": true
    },
    {
      "inputs": [
        {
          "internalType": "address",
          "name": "",
          "type": "address"
        }
      ],
      "name": "verified_address_crime_map",
      "outputs": [
        {
          "internalType": "bool",
          "name": "",
          "type": "bool"
        }
      ],
      "stateMutability": "view",
      "type": "function",
      "constant": true
    },
    {
      "inputs": [
        {
          "internalType": "address",
          "name": "",
          "type": "address"
        }
      ],
      "name": "verified_address_edu_map",
      "outputs": [
        {
          "internalType": "bool",
          "name": "",
          "type": "bool"
        }
      ],
      "stateMutability": "view",
      "type": "function",
      "constant": true
    },
    {
      "inputs": [
        {
          "internalType": "address",
          "name": "",
          "type": "address"
        }
      ],
      "name": "verified_address_med_map",
      "outputs": [
        {
          "internalType": "bool",
          "name": "",
          "type": "bool"
        }
      ],
      "stateMutability": "view",
      "type": "function",
      "constant": true
    },
    {
      "inputs": [],
      "name": "verifierCount",
      "outputs": [
        {
          "internalType": "uint256",
          "name": "",
          "type": "uint256"
        }
      ],
      "stateMutability": "view",
      "type": "function",
      "constant": true
    },
    {
      "inputs": [
        {
          "internalType": "uint256",
          "name": "",
          "type": "uint256"
        }
      ],
      "name": "verifiersArr",
      "outputs": [
        {
          "internalType": "address",
          "name": "",
          "type": "address"
        }
      ],
      "stateMutability": "view",
      "type": "function",
      "constant": true
    },
    {
      "inputs": [
        {
          "internalType": "address",
          "name": "",
          "type": "address"
        },
        {
          "internalType": "address",
          "name": "",
          "type": "address"
        }
      ],
      "name": "voteStatus",
      "outputs": [
        {
          "internalType": "bool",
          "name": "",
          "type": "bool"
        }
      ],
      "stateMutability": "view",
      "type": "function",
      "constant": true
    },
    {
      "inputs": [
        {
          "internalType": "address",
          "name": "verifier",
          "type": "address"
        }
      ],
      "name": "addVerifier",
      "outputs": [
        {
          "internalType": "bool",
          "name": "",
          "type": "bool"
        }
      ],
      "stateMutability": "nonpayable",
      "type": "function"
    },
    {
      "inputs": [
        {
          "internalType": "address",
          "name": "verifier",
          "type": "address"
        }
      ],
      "name": "removeVerifier",
      "outputs": [
        {
          "internalType": "bool",
          "name": "",
          "type": "bool"
        }
      ],
      "stateMutability": "nonpayable",
      "type": "function"
    },
    {
      "inputs": [
        {
          "internalType": "address",
          "name": "org_address",
          "type": "address"
        },
        {
          "internalType": "string",
          "name": "name",
          "type": "string"
        },
        {
          "internalType": "uint256",
          "name": "type_org",
          "type": "uint256"
        },
        {
          "internalType": "string",
          "name": "pic_hash",
          "type": "string"
        },
        {
          "internalType": "string",
          "name": "contactNo",
          "type": "string"
        },
        {
          "internalType": "string",
          "name": "about",
          "type": "string"
        },
        {
          "internalType": "string",
          "name": "phyAdd",
          "type": "string"
        },
        {
          "internalType": "string",
          "name": "email",
          "type": "string"
        }
      ],
      "name": "registerOrg",
      "outputs": [],
      "stateMutability": "nonpayable",
      "type": "function"
    },
    {
      "inputs": [
        {
          "internalType": "address",
          "name": "person_address",
          "type": "address"
        },
        {
          "internalType": "string",
          "name": "pic_hash",
          "type": "string"
        },
        {
          "internalType": "string",
          "name": "name",
          "type": "string"
        },
        {
          "internalType": "string",
          "name": "Gender",
          "type": "string"
        },
        {
          "internalType": "string",
          "name": "AadharNo",
          "type": "string"
        },
        {
          "internalType": "string",
          "name": "phyAddress",
          "type": "string"
        },
        {
          "internalType": "string",
          "name": "dob",
          "type": "string"
        },
        {
          "internalType": "string",
          "name": "contactNo",
          "type": "string"
        }
      ],
      "name": "registerPerson",
      "outputs": [],
      "stateMutability": "nonpayable",
      "type": "function"
    },
    {
      "inputs": [
        {
          "internalType": "address",
          "name": "person_address",
          "type": "address"
        }
      ],
      "name": "getPerson",
      "outputs": [
        {
          "components": [
            {
              "internalType": "string",
              "name": "name",
              "type": "string"
            },
            {
              "internalType": "string",
              "name": "pic_hash",
              "type": "string"
            },
            {
              "internalType": "string",
              "name": "AadharNo",
              "type": "string"
            },
            {
              "internalType": "string",
              "name": "dob",
              "type": "string"
            },
            {
              "internalType": "string",
              "name": "contactNo",
              "type": "string"
            },
            {
              "internalType": "string",
              "name": "Gender",
              "type": "string"
            },
            {
              "internalType": "string",
              "name": "phyAddress",
              "type": "string"
            },
            {
              "internalType": "address",
              "name": "ethAddress",
              "type": "address"
            },
            {
              "components": [
                {
                  "internalType": "address",
                  "name": "org_address",
                  "type": "address"
                },
                {
                  "internalType": "uint256",
                  "name": "org_type",
                  "type": "uint256"
                },
                {
                  "internalType": "string",
                  "name": "org_name",
                  "type": "string"
                },
                {
                  "internalType": "string",
                  "name": "doc_title",
                  "type": "string"
                },
                {
                  "internalType": "string",
                  "name": "Description",
                  "type": "string"
                },
                {
                  "internalType": "string",
                  "name": "Hash",
                  "type": "string"
                },
                {
                  "internalType": "uint256",
                  "name": "timeStamp",
                  "type": "uint256"
                }
              ],
              "internalType": "struct Aadhar.Person_data[]",
              "name": "Edu_data",
              "type": "tuple[]"
            },
            {
              "components": [
                {
                  "internalType": "address",
                  "name": "org_address",
                  "type": "address"
                },
                {
                  "internalType": "uint256",
                  "name": "org_type",
                  "type": "uint256"
                },
                {
                  "internalType": "string",
                  "name": "org_name",
                  "type": "string"
                },
                {
                  "internalType": "string",
                  "name": "doc_title",
                  "type": "string"
                },
                {
                  "internalType": "string",
                  "name": "Description",
                  "type": "string"
                },
                {
                  "internalType": "string",
                  "name": "Hash",
                  "type": "string"
                },
                {
                  "internalType": "uint256",
                  "name": "timeStamp",
                  "type": "uint256"
                }
              ],
              "internalType": "struct Aadhar.Person_data[]",
              "name": "Crime_data",
              "type": "tuple[]"
            },
            {
              "components": [
                {
                  "internalType": "address",
                  "name": "org_address",
                  "type": "address"
                },
                {
                  "internalType": "uint256",
                  "name": "org_type",
                  "type": "uint256"
                },
                {
                  "internalType": "string",
                  "name": "org_name",
                  "type": "string"
                },
                {
                  "internalType": "string",
                  "name": "doc_title",
                  "type": "string"
                },
                {
                  "internalType": "string",
                  "name": "Description",
                  "type": "string"
                },
                {
                  "internalType": "string",
                  "name": "Hash",
                  "type": "string"
                },
                {
                  "internalType": "uint256",
                  "name": "timeStamp",
                  "type": "uint256"
                }
              ],
              "internalType": "struct Aadhar.Person_data[]",
              "name": "Med_data",
              "type": "tuple[]"
            }
          ],
          "internalType": "struct Aadhar.Person",
          "name": "",
          "type": "tuple"
        }
      ],
      "stateMutability": "view",
      "type": "function",
      "constant": true
    },
    {
      "inputs": [
        {
          "internalType": "address",
          "name": "org_address",
          "type": "address"
        }
      ],
      "name": "getOrg",
      "outputs": [
        {
          "components": [
            {
              "internalType": "uint256",
              "name": "type_org",
              "type": "uint256"
            },
            {
              "internalType": "address",
              "name": "orgAddress",
              "type": "address"
            },
            {
              "internalType": "string",
              "name": "pic_hash",
              "type": "string"
            },
            {
              "internalType": "string",
              "name": "name",
              "type": "string"
            },
            {
              "internalType": "string",
              "name": "contactNo",
              "type": "string"
            },
            {
              "internalType": "bool",
              "name": "isVerified",
              "type": "bool"
            },
            {
              "internalType": "bool",
              "name": "isRejected",
              "type": "bool"
            },
            {
              "internalType": "string",
              "name": "about",
              "type": "string"
            },
            {
              "internalType": "string",
              "name": "phyAdd",
              "type": "string"
            },
            {
              "internalType": "string",
              "name": "email",
              "type": "string"
            }
          ],
          "internalType": "struct Aadhar.Organization",
          "name": "",
          "type": "tuple"
        }
      ],
      "stateMutability": "view",
      "type": "function",
      "constant": true
    },
    {
      "inputs": [
        {
          "internalType": "address",
          "name": "user_address",
          "type": "address"
        },
        {
          "internalType": "uint256",
          "name": "org_type",
          "type": "uint256"
        }
      ],
      "name": "getDocsList",
      "outputs": [
        {
          "components": [
            {
              "internalType": "address",
              "name": "org_address",
              "type": "address"
            },
            {
              "internalType": "uint256",
              "name": "org_type",
              "type": "uint256"
            },
            {
              "internalType": "string",
              "name": "org_name",
              "type": "string"
            },
            {
              "internalType": "string",
              "name": "doc_title",
              "type": "string"
            },
            {
              "internalType": "string",
              "name": "Description",
              "type": "string"
            },
            {
              "internalType": "string",
              "name": "Hash",
              "type": "string"
            },
            {
              "internalType": "uint256",
              "name": "timeStamp",
              "type": "uint256"
            }
          ],
          "internalType": "struct Aadhar.Person_data[]",
          "name": "",
          "type": "tuple[]"
        }
      ],
      "stateMutability": "view",
      "type": "function",
      "constant": true
    },
    {
      "inputs": [
        {
          "internalType": "address",
          "name": "my_address",
          "type": "address"
        }
      ],
      "name": "checkRole",
      "outputs": [
        {
          "internalType": "uint256",
          "name": "",
          "type": "uint256"
        }
      ],
      "stateMutability": "view",
      "type": "function",
      "constant": true
    },
    {
      "inputs": [
        {
          "internalType": "address",
          "name": "person_address",
          "type": "address"
        },
        {
          "internalType": "uint256",
          "name": "org_type",
          "type": "uint256"
        },
        {
          "internalType": "address",
          "name": "org_address",
          "type": "address"
        },
        {
          "internalType": "string",
          "name": "doc_hash",
          "type": "string"
        },
        {
          "internalType": "string",
          "name": "doc_title",
          "type": "string"
        },
        {
          "internalType": "string",
          "name": "Description",
          "type": "string"
        }
      ],
      "name": "addPersonDoc",
      "outputs": [],
      "stateMutability": "nonpayable",
      "type": "function"
    },
    {
      "inputs": [
        {
          "internalType": "address",
          "name": "org",
          "type": "address"
        }
      ],
      "name": "upvoteRequest",
      "outputs": [
        {
          "internalType": "bool",
          "name": "",
          "type": "bool"
        }
      ],
      "stateMutability": "nonpayable",
      "type": "function"
    },
    {
      "inputs": [
        {
          "internalType": "address",
          "name": "org",
          "type": "address"
        }
      ],
      "name": "downvoteRequest",
      "outputs": [
        {
          "internalType": "bool",
          "name": "",
          "type": "bool"
        }
      ],
      "stateMutability": "nonpayable",
      "type": "function"
    }
  ],
  "bytecode": "0x60806040526000600355600060085534801561001a57600080fd5b50600080546001600160a01b031916331790556153b98061003c6000396000f3fe608060405234801561001057600080fd5b50600436106101cf5760003560e01c80636d3a92eb11610104578063a7453b6a116100a2578063dc2fee0211610071578063dc2fee02146104b0578063e9cbb604146104c3578063fb4adf52146104f1578063fd2e8080146104fa57600080fd5b8063a7453b6a14610444578063a7edaddc14610457578063ca2dfd0a1461047a578063db3549da1461048d57600080fd5b806392070306116100de57806392070306146103e25780639ade6cc2146104055780639cc81fee14610428578063a0d7823e1461043157600080fd5b80636d3a92eb146103995780638dd5ed78146103bc5780639000b3d6146103cf57600080fd5b8063313965bf11610171578063552d2d5c1161014b578063552d2d5c1461031c5780635b5b18641461033c578063658d9257146103635780636a3043261461038657600080fd5b8063313965bf146102be578063493892ce146102d157806350cf4061146102f157600080fd5b806314b90345116101ad57806314b90345146102345780631b6358a21461025d5780631c469393146102705780631f1f86521461029e57600080fd5b806304757a1f146101d45780630656c6ce146101e9578063110a794714610211575b600080fd5b6101e76101e2366004614abc565b61051a565b005b6101fc6101f7366004614be8565b610617565b60405190151581526020015b60405180910390f35b6101fc61021f366004614be8565b60116020526000908152604090205460ff1681565b610247610242366004614be8565b610856565b6040516102089a99989796959493929190614c57565b6101e761026b366004614d07565b610be6565b61029061027e366004614be8565b60056020526000908152604090205481565b604051908152602001610208565b6102b16102ac366004614be8565b611249565b6040516102089190614d73565b6101e76102cc366004614e7a565b6117c9565b6102e46102df366004614f2c565b611cde565b604051610208919061502e565b6103046102ff366004615041565b6129be565b6040516001600160a01b039091168152602001610208565b61032f61032a366004614be8565b6129e8565b604051610208919061505a565b61034f61034a366004614be8565b6136f9565b6040516102089897969594939291906151a0565b6101fc610371366004614be8565b60126020526000908152604090205460ff1681565b6101fc610394366004614be8565b613afa565b6101fc6103a7366004614be8565b60136020526000908152604090205460ff1681565b6102476103ca366004614be8565b613d8d565b6101fc6103dd366004614be8565b613dbf565b6101fc6103f0366004614be8565b600e6020526000908152604090205460ff1681565b6101fc610413366004614be8565b60106020526000908152604090205460ff1681565b61029060085481565b61029061043f366004614be8565b613f2b565b610247610452366004614be8565b614033565b6101fc610465366004614be8565b600d6020526000908152604090205460ff1681565b6101fc610488366004614be8565b614065565b6101fc61049b366004614be8565b600f6020526000908152604090205460ff1681565b6103046104be366004615041565b6142f3565b6101fc6104d136600461524b565b600660209081526000928352604080842090915290825290205460ff1681565b61029060035481565b610290610508366004614be8565b60046020526000908152604090205481565b6001600160a01b0388166000908152600960209081526040909120875190916105479183918a0190614969565b50875161055d90600183019060208b0190614969565b5085516105739060058301906020890190614969565b5084516105899060028301906020880190614969565b50825161059f9060038301906020860190614969565b506007810180546001600160a01b0319166001600160a01b038b1617905583516105d29060068301906020870190614969565b5081516105e89060048301906020850190614969565b5050506001600160a01b039096166000908152600d60205260409020805460ff19166001179055505050505050565b3360009081526002602052604081205460ff1615156001146106a65760405162461bcd60e51b815260206004820152603660248201527f4f6e6c7920766572696669657220697320616c6c6f77656420746f206f70657260448201527f61746520746869732066756e6374696f6e616c6974790000000000000000000060648201526084015b60405180910390fd5b6001600160a01b0382166000908152600e602052604090205460ff16806106e557506001600160a01b03821660009081526010602052604090205460ff165b8061070857506001600160a01b0382166000908152600f602052604090205460ff165b6107545760405162461bcd60e51b815260206004820152600d60248201527f4f7267206e6f7420666f756e6400000000000000000000000000000000000000604482015260640161069d565b3360009081526006602090815260408083206001600160a01b038616845290915290205460ff16156107c85760405162461bcd60e51b815260206004820152600d60248201527f416c726561647920566f74656400000000000000000000000000000000000000604482015260640161069d565b3360009081526006602090815260408083206001600160a01b03861684528252808320805460ff1916600190811790915560049092528220805491929091610811908490615294565b9091555050600354610825906002906152c2565b6001600160a01b038316600090815260046020526040902054111561084d5761084d82614303565b5060015b919050565b600c6020526000908152604090208054600182015460028301805492936001600160a01b0390921692610888906152d6565b80601f01602080910402602001604051908101604052809291908181526020018280546108b4906152d6565b80156109015780601f106108d657610100808354040283529160200191610901565b820191906000526020600020905b8154815290600101906020018083116108e457829003601f168201915b505050505090806003018054610916906152d6565b80601f0160208091040260200160405190810160405280929190818152602001828054610942906152d6565b801561098f5780601f106109645761010080835404028352916020019161098f565b820191906000526020600020905b81548152906001019060200180831161097257829003601f168201915b5050505050908060040180546109a4906152d6565b80601f01602080910402602001604051908101604052809291908181526020018280546109d0906152d6565b8015610a1d5780601f106109f257610100808354040283529160200191610a1d565b820191906000526020600020905b815481529060010190602001808311610a0057829003601f168201915b505050506005830154600684018054939460ff8084169561010090940416935091610a47906152d6565b80601f0160208091040260200160405190810160405280929190818152602001828054610a73906152d6565b8015610ac05780601f10610a9557610100808354040283529160200191610ac0565b820191906000526020600020905b815481529060010190602001808311610aa357829003601f168201915b505050505090806007018054610ad5906152d6565b80601f0160208091040260200160405190810160405280929190818152602001828054610b01906152d6565b8015610b4e5780601f10610b2357610100808354040283529160200191610b4e565b820191906000526020600020905b815481529060010190602001808311610b3157829003601f168201915b505050505090806008018054610b63906152d6565b80601f0160208091040260200160405190810160405280929190818152602001828054610b8f906152d6565b8015610bdc5780601f10610bb157610100808354040283529160200191610bdc565b820191906000526020600020905b815481529060010190602001808311610bbf57829003601f168201915b505050505090508a565b6001600160a01b0388166000908152600e602052604090205460ff1680610c2557506001600160a01b03881660009081526010602052604090205460ff165b80610c4857506001600160a01b0388166000908152600f602052604090205460ff165b15610c955760405162461bcd60e51b815260206004820152601260248201527f4f726720416c7265616479204578697374730000000000000000000000000000604482015260640161069d565b60408051610140810182528781526001600160a01b038a1660208201529081018690526060810188905260808101859052600060a0820181905260c082015260e081018490526101008101839052610120810182905286610e9e576001600160a01b03898116600090815260046020908152604080832083905560058252808320839055600a82529182902084518155848201516001820180546001600160a01b0319169190951617909355908301518051849392610d5b926002850192910190614969565b5060608201518051610d77916003840191602090910190614969565b5060808201518051610d93916004840191602090910190614969565b5060a082015160058201805460c085015115156101000261ff00199315159390931661ffff199091161791909117905560e08201518051610dde916006840191602090910190614969565b506101008201518051610dfb916007840191602090910190614969565b506101208201518051610e18916008840191602090910190614969565b5050506001600160a01b0389166000818152600e60205260408120805460ff191660019081179091556007805480830182559083527fa66cc928b5edb82af9bd49922954155ab7b0942694bea4ce44661d9a8736c6880180546001600160a01b03191690931790925560088054909190610e93908490615294565b9091555061123e9050565b866001141561104a576001600160a01b03898116600090815260046020908152604080832083905560058252808320839055600b82529182902084518155848201516001820180546001600160a01b0319169190951617909355908301518051849392610f12926002850192910190614969565b5060608201518051610f2e916003840191602090910190614969565b5060808201518051610f4a916004840191602090910190614969565b5060a082015160058201805460c085015115156101000261ff00199315159390931661ffff199091161791909117905560e08201518051610f95916006840191602090910190614969565b506101008201518051610fb2916007840191602090910190614969565b506101208201518051610fcf916008840191602090910190614969565b5050506001600160a01b0389166000818152600f60205260408120805460ff191660019081179091556007805480830182559083527fa66cc928b5edb82af9bd49922954155ab7b0942694bea4ce44661d9a8736c6880180546001600160a01b03191690931790925560088054909190610e93908490615294565b86600214156111f6576001600160a01b03898116600090815260046020908152604080832083905560058252808320839055600c82529182902084518155848201516001820180546001600160a01b03191691909516179093559083015180518493926110be926002850192910190614969565b50606082015180516110da916003840191602090910190614969565b50608082015180516110f6916004840191602090910190614969565b5060a082015160058201805460c085015115156101000261ff00199315159390931661ffff199091161791909117905560e08201518051611141916006840191602090910190614969565b50610100820151805161115e916007840191602090910190614969565b50610120820151805161117b916008840191602090910190614969565b5050506001600160a01b0389166000818152601060205260408120805460ff191660019081179091556007805480830182559083527fa66cc928b5edb82af9bd49922954155ab7b0942694bea4ce44661d9a8736c6880180546001600160a01b03191690931790925560088054909190610e93908490615294565b60405162461bcd60e51b815260206004820152600b60248201527f57726f6e67205479706521000000000000000000000000000000000000000000604482015260640161069d565b505050505050505050565b6112ac6040518061014001604052806000815260200160006001600160a01b031681526020016060815260200160608152602001606081526020016000151581526020016000151581526020016060815260200160608152602001606081525090565b6001600160a01b0382166000908152600e602052604090205460ff16156116a0576001600160a01b038083166000908152600a602090815260409182902082516101408101845281548152600182015490941691840191909152600281018054919284019161131a906152d6565b80601f0160208091040260200160405190810160405280929190818152602001828054611346906152d6565b80156113935780601f1061136857610100808354040283529160200191611393565b820191906000526020600020905b81548152906001019060200180831161137657829003601f168201915b505050505081526020016003820180546113ac906152d6565b80601f01602080910402602001604051908101604052809291908181526020018280546113d8906152d6565b80156114255780601f106113fa57610100808354040283529160200191611425565b820191906000526020600020905b81548152906001019060200180831161140857829003601f168201915b5050505050815260200160048201805461143e906152d6565b80601f016020809104026020016040519081016040528092919081815260200182805461146a906152d6565b80156114b75780601f1061148c576101008083540402835291602001916114b7565b820191906000526020600020905b81548152906001019060200180831161149a57829003601f168201915b5050509183525050600582015460ff8082161515602084015261010090910416151560408201526006820180546060909201916114f3906152d6565b80601f016020809104026020016040519081016040528092919081815260200182805461151f906152d6565b801561156c5780601f106115415761010080835404028352916020019161156c565b820191906000526020600020905b81548152906001019060200180831161154f57829003601f168201915b50505050508152602001600782018054611585906152d6565b80601f01602080910402602001604051908101604052809291908181526020018280546115b1906152d6565b80156115fe5780601f106115d3576101008083540402835291602001916115fe565b820191906000526020600020905b8154815290600101906020018083116115e157829003601f168201915b50505050508152602001600882018054611617906152d6565b80601f0160208091040260200160405190810160405280929190818152602001828054611643906152d6565b80156116905780601f1061166557610100808354040283529160200191611690565b820191906000526020600020905b81548152906001019060200180831161167357829003601f168201915b5050505050815250509050919050565b6001600160a01b03821660009081526010602052604090205460ff161561170e576001600160a01b038083166000908152600c602090815260409182902082516101408101845281548152600182015490941691840191909152600281018054919284019161131a906152d6565b6001600160a01b0382166000908152600f602052604090205460ff161561177c576001600160a01b038083166000908152600b602090815260409182902082516101408101845281548152600182015490941691840191909152600281018054919284019161131a906152d6565b6001600160a01b038083166000908152600a602090815260409182902082516101408101845281548152600182015490941691840191909152600281018054919284019161131a906152d6565b6001600160a01b03841660009081526011602052604090205460ff168061180857506001600160a01b03841660009081526012602052604090205460ff165b8061182b57506001600160a01b03841660009081526013602052604090205460ff165b6118775760405162461bcd60e51b815260206004820152601a60248201527f4f5247414e49534154494f4e204e4f5420564552494649454421000000000000604482015260640161069d565b6001600160a01b0386166000908152600d602052604090205460ff166118df5760405162461bcd60e51b815260206004820152601660248201527f504552534f4e20444f4553204e4f542045584953542100000000000000000000604482015260640161069d565b6001600160a01b03861660009081526009602090815260408083208151928301909152918152866119b5576001600160a01b0386166000908152600a602052604090206003018054611930906152d6565b80601f016020809104026020016040519081016040528092919081815260200182805461195c906152d6565b80156119a95780601f1061197e576101008083540402835291602001916119a9565b820191906000526020600020905b81548152906001019060200180831161198c57829003601f168201915b50505050509050611a94565b86600114156119e4576001600160a01b0386166000908152600b602052604090206003018054611930906152d6565b8660021415611a94576001600160a01b0386166000908152600c602052604090206003018054611a13906152d6565b80601f0160208091040260200160405190810160405280929190818152602001828054611a3f906152d6565b8015611a8c5780601f10611a6157610100808354040283529160200191611a8c565b820191906000526020600020905b815481529060010190602001808311611a6f57829003601f168201915b505050505090505b60006040518060e00160405280886001600160a01b031681526020018981526020018381526020018681526020018581526020018781526020014281525090508760001415611ba257600883018054600180820183556000928352602092839020845160079093020180546001600160a01b0319166001600160a01b039093169290921782558383015190820155604083015180518493611b3c926002850192910190614969565b5060608201518051611b58916003840191602090910190614969565b5060808201518051611b74916004840191602090910190614969565b5060a08201518051611b90916005840191602090910190614969565b5060c08201518160060155505061123e565b8760011415611c0a57600983018054600180820183556000928352602092839020845160079093020180546001600160a01b0319166001600160a01b039093169290921782558383015190820155604083015180518493611b3c926002850192910190614969565b876002141561123e57600a83018054600180820183556000928352602092839020845160079093020180546001600160a01b0319166001600160a01b039093169290921782558383015190820155604083015180518493611c72926002850192910190614969565b5060608201518051611c8e916003840191602090910190614969565b5060808201518051611caa916004840191602090910190614969565b5060a08201518051611cc6916005840191602090910190614969565b5060c082015181600601555050505050505050505050565b6001600160a01b03821660009081526009602052604080822081516101608101909252805460609392919082908290611d16906152d6565b80601f0160208091040260200160405190810160405280929190818152602001828054611d42906152d6565b8015611d8f5780601f10611d6457610100808354040283529160200191611d8f565b820191906000526020600020905b815481529060010190602001808311611d7257829003601f168201915b50505050508152602001600182018054611da8906152d6565b80601f0160208091040260200160405190810160405280929190818152602001828054611dd4906152d6565b8015611e215780601f10611df657610100808354040283529160200191611e21565b820191906000526020600020905b815481529060010190602001808311611e0457829003601f168201915b50505050508152602001600282018054611e3a906152d6565b80601f0160208091040260200160405190810160405280929190818152602001828054611e66906152d6565b8015611eb35780601f10611e8857610100808354040283529160200191611eb3565b820191906000526020600020905b815481529060010190602001808311611e9657829003601f168201915b50505050508152602001600382018054611ecc906152d6565b80601f0160208091040260200160405190810160405280929190818152602001828054611ef8906152d6565b8015611f455780601f10611f1a57610100808354040283529160200191611f45565b820191906000526020600020905b815481529060010190602001808311611f2857829003601f168201915b50505050508152602001600482018054611f5e906152d6565b80601f0160208091040260200160405190810160405280929190818152602001828054611f8a906152d6565b8015611fd75780601f10611fac57610100808354040283529160200191611fd7565b820191906000526020600020905b815481529060010190602001808311611fba57829003601f168201915b50505050508152602001600582018054611ff0906152d6565b80601f016020809104026020016040519081016040528092919081815260200182805461201c906152d6565b80156120695780601f1061203e57610100808354040283529160200191612069565b820191906000526020600020905b81548152906001019060200180831161204c57829003601f168201915b50505050508152602001600682018054612082906152d6565b80601f01602080910402602001604051908101604052809291908181526020018280546120ae906152d6565b80156120fb5780601f106120d0576101008083540402835291602001916120fb565b820191906000526020600020905b8154815290600101906020018083116120de57829003601f168201915b505050918352505060078201546001600160a01b0316602080830191909152600883018054604080518285028101850182528281529401939260009084015b828210156123de5760008481526020908190206040805160e0810182526007860290920180546001600160a01b031683526001810154938301939093526002830180549293929184019161218d906152d6565b80601f01602080910402602001604051908101604052809291908181526020018280546121b9906152d6565b80156122065780601f106121db57610100808354040283529160200191612206565b820191906000526020600020905b8154815290600101906020018083116121e957829003601f168201915b5050505050815260200160038201805461221f906152d6565b80601f016020809104026020016040519081016040528092919081815260200182805461224b906152d6565b80156122985780601f1061226d57610100808354040283529160200191612298565b820191906000526020600020905b81548152906001019060200180831161227b57829003601f168201915b505050505081526020016004820180546122b1906152d6565b80601f01602080910402602001604051908101604052809291908181526020018280546122dd906152d6565b801561232a5780601f106122ff5761010080835404028352916020019161232a565b820191906000526020600020905b81548152906001019060200180831161230d57829003601f168201915b50505050508152602001600582018054612343906152d6565b80601f016020809104026020016040519081016040528092919081815260200182805461236f906152d6565b80156123bc5780601f10612391576101008083540402835291602001916123bc565b820191906000526020600020905b81548152906001019060200180831161239f57829003601f168201915b505050505081526020016006820154815250508152602001906001019061213a565b50505050815260200160098201805480602002602001604051908101604052809291908181526020016000905b828210156126af5760008481526020908190206040805160e0810182526007860290920180546001600160a01b031683526001810154938301939093526002830180549293929184019161245e906152d6565b80601f016020809104026020016040519081016040528092919081815260200182805461248a906152d6565b80156124d75780601f106124ac576101008083540402835291602001916124d7565b820191906000526020600020905b8154815290600101906020018083116124ba57829003601f168201915b505050505081526020016003820180546124f0906152d6565b80601f016020809104026020016040519081016040528092919081815260200182805461251c906152d6565b80156125695780601f1061253e57610100808354040283529160200191612569565b820191906000526020600020905b81548152906001019060200180831161254c57829003601f168201915b50505050508152602001600482018054612582906152d6565b80601f01602080910402602001604051908101604052809291908181526020018280546125ae906152d6565b80156125fb5780601f106125d0576101008083540402835291602001916125fb565b820191906000526020600020905b8154815290600101906020018083116125de57829003601f168201915b50505050508152602001600582018054612614906152d6565b80601f0160208091040260200160405190810160405280929190818152602001828054612640906152d6565b801561268d5780601f106126625761010080835404028352916020019161268d565b820191906000526020600020905b81548152906001019060200180831161267057829003601f168201915b505050505081526020016006820154815250508152602001906001019061240b565b505050508152602001600a8201805480602002602001604051908101604052809291908181526020016000905b828210156129805760008481526020908190206040805160e0810182526007860290920180546001600160a01b031683526001810154938301939093526002830180549293929184019161272f906152d6565b80601f016020809104026020016040519081016040528092919081815260200182805461275b906152d6565b80156127a85780601f1061277d576101008083540402835291602001916127a8565b820191906000526020600020905b81548152906001019060200180831161278b57829003601f168201915b505050505081526020016003820180546127c1906152d6565b80601f01602080910402602001604051908101604052809291908181526020018280546127ed906152d6565b801561283a5780601f1061280f5761010080835404028352916020019161283a565b820191906000526020600020905b81548152906001019060200180831161281d57829003601f168201915b50505050508152602001600482018054612853906152d6565b80601f016020809104026020016040519081016040528092919081815260200182805461287f906152d6565b80156128cc5780601f106128a1576101008083540402835291602001916128cc565b820191906000526020600020905b8154815290600101906020018083116128af57829003601f168201915b505050505081526020016005820180546128e5906152d6565b80601f0160208091040260200160405190810160405280929190818152602001828054612911906152d6565b801561295e5780601f106129335761010080835404028352916020019161295e565b820191906000526020600020905b81548152906001019060200180831161294157829003601f168201915b50505050508152602001600682015481525050815260200190600101906126dc565b505050915250909150508261299b57610100015190506129b8565b82600114156129b057610120015190506129b8565b610140015190505b92915050565b600781815481106129ce57600080fd5b6000918252602090912001546001600160a01b0316905081565b612a4e6040518061016001604052806060815260200160608152602001606081526020016060815260200160608152602001606081526020016060815260200160006001600160a01b031681526020016060815260200160608152602001606081525090565b6001600160a01b0382166000908152600960205260409081902081516101608101909252805482908290612a81906152d6565b80601f0160208091040260200160405190810160405280929190818152602001828054612aad906152d6565b8015612afa5780601f10612acf57610100808354040283529160200191612afa565b820191906000526020600020905b815481529060010190602001808311612add57829003601f168201915b50505050508152602001600182018054612b13906152d6565b80601f0160208091040260200160405190810160405280929190818152602001828054612b3f906152d6565b8015612b8c5780601f10612b6157610100808354040283529160200191612b8c565b820191906000526020600020905b815481529060010190602001808311612b6f57829003601f168201915b50505050508152602001600282018054612ba5906152d6565b80601f0160208091040260200160405190810160405280929190818152602001828054612bd1906152d6565b8015612c1e5780601f10612bf357610100808354040283529160200191612c1e565b820191906000526020600020905b815481529060010190602001808311612c0157829003601f168201915b50505050508152602001600382018054612c37906152d6565b80601f0160208091040260200160405190810160405280929190818152602001828054612c63906152d6565b8015612cb05780601f10612c8557610100808354040283529160200191612cb0565b820191906000526020600020905b815481529060010190602001808311612c9357829003601f168201915b50505050508152602001600482018054612cc9906152d6565b80601f0160208091040260200160405190810160405280929190818152602001828054612cf5906152d6565b8015612d425780601f10612d1757610100808354040283529160200191612d42565b820191906000526020600020905b815481529060010190602001808311612d2557829003601f168201915b50505050508152602001600582018054612d5b906152d6565b80601f0160208091040260200160405190810160405280929190818152602001828054612d87906152d6565b8015612dd45780601f10612da957610100808354040283529160200191612dd4565b820191906000526020600020905b815481529060010190602001808311612db757829003601f168201915b50505050508152602001600682018054612ded906152d6565b80601f0160208091040260200160405190810160405280929190818152602001828054612e19906152d6565b8015612e665780601f10612e3b57610100808354040283529160200191612e66565b820191906000526020600020905b815481529060010190602001808311612e4957829003601f168201915b505050918352505060078201546001600160a01b0316602080830191909152600883018054604080518285028101850182528281529401939260009084015b828210156131495760008481526020908190206040805160e0810182526007860290920180546001600160a01b0316835260018101549383019390935260028301805492939291840191612ef8906152d6565b80601f0160208091040260200160405190810160405280929190818152602001828054612f24906152d6565b8015612f715780601f10612f4657610100808354040283529160200191612f71565b820191906000526020600020905b815481529060010190602001808311612f5457829003601f168201915b50505050508152602001600382018054612f8a906152d6565b80601f0160208091040260200160405190810160405280929190818152602001828054612fb6906152d6565b80156130035780601f10612fd857610100808354040283529160200191613003565b820191906000526020600020905b815481529060010190602001808311612fe657829003601f168201915b5050505050815260200160048201805461301c906152d6565b80601f0160208091040260200160405190810160405280929190818152602001828054613048906152d6565b80156130955780601f1061306a57610100808354040283529160200191613095565b820191906000526020600020905b81548152906001019060200180831161307857829003601f168201915b505050505081526020016005820180546130ae906152d6565b80601f01602080910402602001604051908101604052809291908181526020018280546130da906152d6565b80156131275780601f106130fc57610100808354040283529160200191613127565b820191906000526020600020905b81548152906001019060200180831161310a57829003601f168201915b5050505050815260200160068201548152505081526020019060010190612ea5565b50505050815260200160098201805480602002602001604051908101604052809291908181526020016000905b8282101561341a5760008481526020908190206040805160e0810182526007860290920180546001600160a01b03168352600181015493830193909352600283018054929392918401916131c9906152d6565b80601f01602080910402602001604051908101604052809291908181526020018280546131f5906152d6565b80156132425780601f1061321757610100808354040283529160200191613242565b820191906000526020600020905b81548152906001019060200180831161322557829003601f168201915b5050505050815260200160038201805461325b906152d6565b80601f0160208091040260200160405190810160405280929190818152602001828054613287906152d6565b80156132d45780601f106132a9576101008083540402835291602001916132d4565b820191906000526020600020905b8154815290600101906020018083116132b757829003601f168201915b505050505081526020016004820180546132ed906152d6565b80601f0160208091040260200160405190810160405280929190818152602001828054613319906152d6565b80156133665780601f1061333b57610100808354040283529160200191613366565b820191906000526020600020905b81548152906001019060200180831161334957829003601f168201915b5050505050815260200160058201805461337f906152d6565b80601f01602080910402602001604051908101604052809291908181526020018280546133ab906152d6565b80156133f85780601f106133cd576101008083540402835291602001916133f8565b820191906000526020600020905b8154815290600101906020018083116133db57829003601f168201915b5050505050815260200160068201548152505081526020019060010190613176565b505050508152602001600a8201805480602002602001604051908101604052809291908181526020016000905b828210156136eb5760008481526020908190206040805160e0810182526007860290920180546001600160a01b031683526001810154938301939093526002830180549293929184019161349a906152d6565b80601f01602080910402602001604051908101604052809291908181526020018280546134c6906152d6565b80156135135780601f106134e857610100808354040283529160200191613513565b820191906000526020600020905b8154815290600101906020018083116134f657829003601f168201915b5050505050815260200160038201805461352c906152d6565b80601f0160208091040260200160405190810160405280929190818152602001828054613558906152d6565b80156135a55780601f1061357a576101008083540402835291602001916135a5565b820191906000526020600020905b81548152906001019060200180831161358857829003601f168201915b505050505081526020016004820180546135be906152d6565b80601f01602080910402602001604051908101604052809291908181526020018280546135ea906152d6565b80156136375780601f1061360c57610100808354040283529160200191613637565b820191906000526020600020905b81548152906001019060200180831161361a57829003601f168201915b50505050508152602001600582018054613650906152d6565b80601f016020809104026020016040519081016040528092919081815260200182805461367c906152d6565b80156136c95780601f1061369e576101008083540402835291602001916136c9565b820191906000526020600020905b8154815290600101906020018083116136ac57829003601f168201915b5050505050815260200160068201548152505081526020019060010190613447565b505050915250909392505050565b600960205260009081526040902080548190613714906152d6565b80601f0160208091040260200160405190810160405280929190818152602001828054613740906152d6565b801561378d5780601f106137625761010080835404028352916020019161378d565b820191906000526020600020905b81548152906001019060200180831161377057829003601f168201915b5050505050908060010180546137a2906152d6565b80601f01602080910402602001604051908101604052809291908181526020018280546137ce906152d6565b801561381b5780601f106137f05761010080835404028352916020019161381b565b820191906000526020600020905b8154815290600101906020018083116137fe57829003601f168201915b505050505090806002018054613830906152d6565b80601f016020809104026020016040519081016040528092919081815260200182805461385c906152d6565b80156138a95780601f1061387e576101008083540402835291602001916138a9565b820191906000526020600020905b81548152906001019060200180831161388c57829003601f168201915b5050505050908060030180546138be906152d6565b80601f01602080910402602001604051908101604052809291908181526020018280546138ea906152d6565b80156139375780601f1061390c57610100808354040283529160200191613937565b820191906000526020600020905b81548152906001019060200180831161391a57829003601f168201915b50505050509080600401805461394c906152d6565b80601f0160208091040260200160405190810160405280929190818152602001828054613978906152d6565b80156139c55780601f1061399a576101008083540402835291602001916139c5565b820191906000526020600020905b8154815290600101906020018083116139a857829003601f168201915b5050505050908060050180546139da906152d6565b80601f0160208091040260200160405190810160405280929190818152602001828054613a06906152d6565b8015613a535780601f10613a2857610100808354040283529160200191613a53565b820191906000526020600020905b815481529060010190602001808311613a3657829003601f168201915b505050505090806006018054613a68906152d6565b80601f0160208091040260200160405190810160405280929190818152602001828054613a94906152d6565b8015613ae15780601f10613ab657610100808354040283529160200191613ae1565b820191906000526020600020905b815481529060010190602001808311613ac457829003601f168201915b505050600790930154919250506001600160a01b031688565b3360009081526002602052604081205460ff161515600114613b845760405162461bcd60e51b815260206004820152603660248201527f4f6e6c7920766572696669657220697320616c6c6f77656420746f206f70657260448201527f61746520746869732066756e6374696f6e616c69747900000000000000000000606482015260840161069d565b6001600160a01b0382166000908152600e602052604090205460ff1680613bc357506001600160a01b03821660009081526010602052604090205460ff165b80613be657506001600160a01b0382166000908152600f602052604090205460ff165b613c325760405162461bcd60e51b815260206004820152600d60248201527f4f7267206e6f7420666f756e6400000000000000000000000000000000000000604482015260640161069d565b3360009081526006602090815260408083206001600160a01b038616845290915290205460ff1615613ca65760405162461bcd60e51b815260206004820152600d60248201527f416c726561647920566f74656400000000000000000000000000000000000000604482015260640161069d565b3360009081526006602090815260408083206001600160a01b03861684528252808320805460ff1916600190811790915560059092528220805491929091613cef908490615294565b9091555050600354613d0390600290615311565b158015613d3657506002600354613d1a91906152c2565b6001600160a01b03831660009081526005602052604090205410155b80613d7f57506002600354613d4b9190615311565b6001148015613d7f57506002600354613d6491906152c2565b6001600160a01b038316600090815260056020526040902054115b1561084d5761084d826143d5565b600b6020526000908152604090208054600182015460028301805492936001600160a01b0390921692610888906152d6565b600080546001600160a01b03163314613e405760405162461bcd60e51b815260206004820152603360248201527f6f6e6c792061646d696e20697320616c6c6f77656420746f206f70657261746560448201527f20746869732066756e6374696f6e616c69747900000000000000000000000000606482015260840161069d565b6001600160a01b03821660009081526002602052604090205460ff1615613ea95760405162461bcd60e51b815260206004820152600f60248201527f20416c7265616479206578697374730000000000000000000000000000000000604482015260640161069d565b600160036000828254613ebc9190615294565b9091555050506001600160a01b03166000818152600260205260408120805460ff1916600190811790915580548082018255918190527fb10e2d527612073b26eecdfd717e6a320cf44b4afac2b0732d9fcbe2b7fa0cf690910180546001600160a01b03191690921790915590565b600080546001600160a01b0383811691161415613f4a57506001919050565b6001600160a01b0382166000908152600d602052604090205460ff16151560011415613f7857506002919050565b6001600160a01b0382166000908152600e602052604090205460ff16151560011415613fa657506003919050565b6001600160a01b03821660009081526010602052604090205460ff16151560011415613fd457506004919050565b6001600160a01b0382166000908152600f602052604090205460ff1615156001141561400257506005919050565b6001600160a01b03821660009081526002602052604090205460ff161561402b57506006919050565b506000919050565b600a6020526000908152604090208054600182015460028301805492936001600160a01b0390921692610888906152d6565b600080546001600160a01b031633146140e65760405162461bcd60e51b815260206004820152603360248201527f6f6e6c792061646d696e20697320616c6c6f77656420746f206f70657261746560448201527f20746869732066756e6374696f6e616c69747900000000000000000000000000606482015260840161069d565b6001600160a01b03821660009081526002602052604090205460ff1661414e5760405162461bcd60e51b815260206004820152600b60248201527f204e6f7420657869737473000000000000000000000000000000000000000000604482015260640161069d565b6001600160a01b0382166000908152600260205260408120805460ff191690556003805460019290614181908490615325565b90915550620f4240905060005b6001548110156141ea57836001600160a01b0316600182815481106141b5576141b561533c565b6000918252602090912001546001600160a01b031614156141d8578091506141ea565b806141e281615352565b91505061418e565b5080620f4240141561423e5760405162461bcd60e51b815260206004820152601460248201527f5665726966696572206e6f742070726573656e74000000000000000000000000604482015260640161069d565b6001805461424d908290615325565b8154811061425d5761425d61533c565b600091825260209091200154600180546001600160a01b0390921691839081106142895761428961533c565b9060005260206000200160006101000a8154816001600160a01b0302191690836001600160a01b0316021790555060018054806142c8576142c861536d565b600082815260209020600019908201810180546001600160a01b031916905501905550600192915050565b600181815481106129ce57600080fd5b61430c8161445c565b6001600160a01b0381166000908152600e602052604090205460ff16156143395761433681614588565b50565b6001600160a01b03811660009081526010602052604090205460ff1615614363576143368161462f565b6001600160a01b0381166000908152600f602052604090205460ff161561438d57614336816146d6565b60405162461bcd60e51b815260206004820152600c60248201527f4e6f206f726720666f756e640000000000000000000000000000000000000000604482015260640161069d565b6143de8161445c565b6001600160a01b0381166000908152600e602052604090205460ff1615614408576143368161477d565b6001600160a01b03811660009081526010602052604090205460ff16156144325761433681614820565b6001600160a01b0381166000908152600f602052604090205460ff161561438d57614336816148c6565b60005b60075481101561458457816001600160a01b0316600782815481106144865761448661533c565b6000918252602090912001546001600160a01b0316141561457257600780546144b190600190615325565b815481106144c1576144c161533c565b600091825260209091200154600780546001600160a01b0390921691839081106144ed576144ed61533c565b9060005260206000200160006101000a8154816001600160a01b0302191690836001600160a01b03160217905550600780548061452c5761452c61536d565b6001900381819060005260206000200160006101000a8154906001600160a01b03021916905590556001600860008282546145679190615325565b909155506145849050565b8061457c81615352565b91505061445f565b5050565b6001600160a01b0381166000908152600e602052604090205460ff166145f05760405162461bcd60e51b815260206004820152601c60248201527f4f5247414e49534154494f4e20444f4553204e4f542045584953542100000000604482015260640161069d565b6001600160a01b03166000908152600a602090815260408083206005018054600160ff1991821681179092556011909352922080549091169091179055565b6001600160a01b03811660009081526010602052604090205460ff166146975760405162461bcd60e51b815260206004820152601c60248201527f4f5247414e49534154494f4e20444f4553204e4f542045584953542100000000604482015260640161069d565b6001600160a01b03166000908152600c602090815260408083206005018054600160ff1991821681179092556013909352922080549091169091179055565b6001600160a01b0381166000908152600f602052604090205460ff1661473e5760405162461bcd60e51b815260206004820152601c60248201527f4f5247414e49534154494f4e20444f4553204e4f542045584953542100000000604482015260640161069d565b6001600160a01b03166000908152600b602090815260408083206005018054600160ff1991821681179092556012909352922080549091169091179055565b6001600160a01b0381166000908152600e602052604090205460ff166147e55760405162461bcd60e51b815260206004820152601c60248201527f4f5247414e49534154494f4e20444f4553204e4f542045584953542100000000604482015260640161069d565b6001600160a01b03166000908152600a60209081526040808320600501805461ff00191661010017905560119091529020805460ff19169055565b6001600160a01b03811660009081526010602052604090205460ff166148885760405162461bcd60e51b815260206004820152601c60248201527f4f5247414e49534154494f4e20444f4553204e4f542045584953542100000000604482015260640161069d565b6001600160a01b03166000908152600c60209081526040808320600501805461ff00191661010017905560139091529020805460ff19166001179055565b6001600160a01b0381166000908152600f602052604090205460ff1661492e5760405162461bcd60e51b815260206004820152601c60248201527f4f5247414e49534154494f4e20444f4553204e4f542045584953542100000000604482015260640161069d565b6001600160a01b03166000908152600b60209081526040808320600501805461ff00191661010017905560129091529020805460ff19169055565b828054614975906152d6565b90600052602060002090601f01602090048101928261499757600085556149dd565b82601f106149b057805160ff19168380011785556149dd565b828001600101855582156149dd579182015b828111156149dd5782518255916020019190600101906149c2565b506149e99291506149ed565b5090565b5b808211156149e957600081556001016149ee565b80356001600160a01b038116811461085157600080fd5b634e487b7160e01b600052604160045260246000fd5b600082601f830112614a4057600080fd5b813567ffffffffffffffff80821115614a5b57614a5b614a19565b604051601f8301601f19908116603f01168101908282118183101715614a8357614a83614a19565b81604052838152866020858801011115614a9c57600080fd5b836020870160208301376000602085830101528094505050505092915050565b600080600080600080600080610100898b031215614ad957600080fd5b614ae289614a02565b9750602089013567ffffffffffffffff80821115614aff57600080fd5b614b0b8c838d01614a2f565b985060408b0135915080821115614b2157600080fd5b614b2d8c838d01614a2f565b975060608b0135915080821115614b4357600080fd5b614b4f8c838d01614a2f565b965060808b0135915080821115614b6557600080fd5b614b718c838d01614a2f565b955060a08b0135915080821115614b8757600080fd5b614b938c838d01614a2f565b945060c08b0135915080821115614ba957600080fd5b614bb58c838d01614a2f565b935060e08b0135915080821115614bcb57600080fd5b50614bd88b828c01614a2f565b9150509295985092959890939650565b600060208284031215614bfa57600080fd5b614c0382614a02565b9392505050565b6000815180845260005b81811015614c3057602081850181015186830182015201614c14565b81811115614c42576000602083870101525b50601f01601f19169290920160200192915050565b60006101408c83526001600160a01b038c166020840152806040840152614c808184018c614c0a565b90508281036060840152614c94818b614c0a565b90508281036080840152614ca8818a614c0a565b905087151560a084015286151560c084015282810360e0840152614ccc8187614c0a565b9050828103610100840152614ce18186614c0a565b9050828103610120840152614cf68185614c0a565b9d9c50505050505050505050505050565b600080600080600080600080610100898b031215614d2457600080fd5b614d2d89614a02565b9750602089013567ffffffffffffffff80821115614d4a57600080fd5b614d568c838d01614a2f565b985060408b0135975060608b0135915080821115614b4357600080fd5b602081528151602082015260006020830151614d9a60408401826001600160a01b03169052565b506040830151610140806060850152614db7610160850183614c0a565b91506060850151601f1980868503016080870152614dd58483614c0a565b935060808701519150808685030160a0870152614df28483614c0a565b935060a08701519150614e0960c087018315159052565b60c087015180151560e0880152915060e08701519150610100818786030181880152614e358584614c0a565b945080880151925050610120818786030181880152614e548584614c0a565b908801518782039092018488015293509050614e708382614c0a565b9695505050505050565b60008060008060008060c08789031215614e9357600080fd5b614e9c87614a02565b955060208701359450614eb160408801614a02565b9350606087013567ffffffffffffffff80821115614ece57600080fd5b614eda8a838b01614a2f565b94506080890135915080821115614ef057600080fd5b614efc8a838b01614a2f565b935060a0890135915080821115614f1257600080fd5b50614f1f89828a01614a2f565b9150509295509295509295565b60008060408385031215614f3f57600080fd5b614f4883614a02565b946020939093013593505050565b6000815180845260208085019450848260051b860182860160005b85811015615021578383038952815160e06001600160a01b03825116855286820151878601526040808301518282880152614fae83880182614c0a565b9250505060608083015186830382880152614fc98382614c0a565b9250505060808083015186830382880152614fe48382614c0a565b9250505060a08083015186830382880152614fff8382614c0a565b60c0948501519790940196909652505098850198925090840190600101614f71565b5090979650505050505050565b602081526000614c036020830184614f56565b60006020828403121561505357600080fd5b5035919050565b6020815260008251610160806020850152615079610180850183614c0a565b91506020850151601f19808685030160408701526150978483614c0a565b935060408701519150808685030160608701526150b48483614c0a565b935060608701519150808685030160808701526150d18483614c0a565b935060808701519150808685030160a08701526150ee8483614c0a565b935060a08701519150808685030160c087015261510b8483614c0a565b935060c08701519150808685030160e08701526151288483614c0a565b935060e08701519150610100615148818801846001600160a01b03169052565b808801519250506101208187860301818801526151658584614f56565b9450808801519250506101408187860301818801526151848584614f56565b908801518782039092018488015293509050614e708382614f56565b60006101008083526151b48184018c614c0a565b905082810360208401526151c8818b614c0a565b905082810360408401526151dc818a614c0a565b905082810360608401526151f08189614c0a565b905082810360808401526152048188614c0a565b905082810360a08401526152188187614c0a565b905082810360c084015261522c8186614c0a565b9150506001600160a01b03831660e08301529998505050505050505050565b6000806040838503121561525e57600080fd5b61526783614a02565b915061527560208401614a02565b90509250929050565b634e487b7160e01b600052601160045260246000fd5b600082198211156152a7576152a761527e565b500190565b634e487b7160e01b600052601260045260246000fd5b6000826152d1576152d16152ac565b500490565b600181811c908216806152ea57607f821691505b6020821081141561530b57634e487b7160e01b600052602260045260246000fd5b50919050565b600082615320576153206152ac565b500690565b6000828210156153375761533761527e565b500390565b634e487b7160e01b600052603260045260246000fd5b60006000198214156153665761536661527e565b5060010190565b634e487b7160e01b600052603160045260246000fdfea2646970667358221220a375a73c9ea72dc50721714933237cc26025817dee66b7b65f42dd8a81958e4864736f6c634300080b0033",
  "immutableReferences": {},
  "source": "//SPDX-License-Identifier: UNLICENSED\r\npragma solidity >=0.4.21 <8.10.0;\r\npragma experimental ABIEncoderV2;\r\n\r\ncontract Aadhar {\r\n\r\n\r\n    address admin;\r\n       address[] public verifiersArr;\r\n    mapping(address => bool) verifiers;\r\n    uint public verifierCount = 0;\r\n    mapping(address => uint) public upvoteCount;\r\n    mapping(address => uint) public downvoteCount;\r\n  \r\n    mapping( address => mapping( address => bool ) ) public voteStatus;\r\n    \r\n\r\n\r\n    constructor()  \r\n    {\r\n        admin = msg.sender;\r\n    }\r\n\r\n    modifier isAdmin {\r\n        require(\r\n            admin == msg.sender,\r\n            \"only admin is allowed to operate this functionality\"\r\n        );\r\n        _;\r\n    }\r\n\r\n   \r\n    modifier isVerifier {\r\n         require(\r\n            verifiers[msg.sender]==true,\r\n            \"Only verifier is allowed to operate this functionality\"\r\n        );\r\n        _;\r\n        \r\n    }\r\n\r\n    address[] public activeRequests;\r\n    uint public activeRequestsLength =0;\r\n    struct Organization {\r\n        uint type_org;\r\n        address orgAddress;\r\n        string pic_hash;\r\n        string name;\r\n        string contactNo;\r\n        bool isVerified;\r\n        bool isRejected;\r\n        string about;\r\n        string phyAdd;\r\n        string email;\r\n    }\r\n\r\n\r\n\r\n    struct Person_data {\r\n         address org_address;\r\n        uint org_type;\r\n        string org_name;\r\n        string doc_title;\r\n        string Description;\r\n        string Hash; //hash of the doc\r\n        uint256 timeStamp; //use \"now\" to store current time\r\n    }\r\n\r\n\r\n    struct Person {\r\n         string name;\r\n        string pic_hash;\r\n        string AadharNo;\r\n        string dob;\r\n        string contactNo;\r\n        string Gender;\r\n        string phyAddress;\r\n        address ethAddress;\r\n        Person_data[] Edu_data;\r\n        Person_data[] Crime_data;\r\n        Person_data[] Med_data;\r\n    }\r\n\r\n    mapping(address => Person) public address_person_map;\r\n    mapping(address => Organization) public address_edu_map;\r\n    mapping(address => Organization) public address_crime_map;\r\n    mapping(address => Organization) public address_med_map;\r\n\r\n    mapping(address => bool) public exists_address_person_map;\r\n    mapping(address => bool) public exists_address_edu_map;\r\n    mapping(address => bool) public exists_address_crime_map;\r\n    mapping(address => bool) public exists_address_med_map;\r\n\r\n    mapping(address => bool) public verified_address_edu_map;\r\n    mapping(address => bool) public verified_address_crime_map;\r\n    mapping(address => bool) public verified_address_med_map;\r\n\r\n\r\n    function addVerifier(address verifier) public isAdmin returns(bool){\r\n         if(verifiers[verifier]){\r\n            revert(\" Already exists\");\r\n        }\r\n         verifierCount +=1;\r\n        verifiers[verifier]=true;\r\n        verifiersArr.push(verifier);\r\n        return true;\r\n\r\n    }\r\n    function removeVerifier(address verifier) public isAdmin returns(bool){\r\n\r\n         if(!verifiers[verifier]){\r\n            revert(\" Not exists\");\r\n        }\r\n        verifiers[verifier]  = false;\r\n        delete verifiers[verifier];\r\n         verifierCount -=1;\r\n            uint256 ind = 1000000;\r\n        for (uint256 i = 0; i < verifiersArr.length; i++) {\r\n            if (verifiersArr[i] == verifier) {\r\n                ind = i;\r\n                break;\r\n            }\r\n        }\r\n        if (ind == 1000000) revert(\"Verifier not present\");\r\n        verifiersArr[ind] = verifiersArr[verifiersArr.length - 1];\r\n        verifiersArr.pop();\r\n    \r\n        return true;\r\n\r\n    }\r\n\r\n\r\n    function registerOrg (\r\n        address org_address,\r\n        string memory name,\r\n        uint type_org,\r\n        string memory pic_hash,\r\n        string memory contactNo,\r\n        string memory about,\r\n        string memory phyAdd,\r\n        string memory email\r\n) public {\r\n    if (exists_address_edu_map[org_address]  || exists_address_med_map[org_address] || exists_address_crime_map[org_address] ){\r\n            revert(\"Org Already Exists\");\r\n        }\r\n            Organization memory org = Organization(type_org,org_address, pic_hash, name, contactNo, false, false, about, phyAdd, email);\r\n        \r\n            if(type_org == 0){\r\n                \r\n                upvoteCount[org_address] = 0;\r\n                downvoteCount[org_address]=0;\r\n                address_edu_map[org_address] = org;\r\n                exists_address_edu_map[org_address] = true;\r\n                activeRequests.push(org_address);\r\n                activeRequestsLength +=1;\r\n               \r\n            } else if (type_org == 1){\r\n               \r\n                  upvoteCount[org_address] = 0;\r\n                downvoteCount[org_address]=0;\r\n                address_crime_map[org_address] = org;\r\n                exists_address_crime_map[org_address] = true;\r\n                 activeRequests.push(org_address);\r\n                 activeRequestsLength +=1;\r\n               \r\n            } else if(type_org==2){\r\n               \r\n                  upvoteCount[org_address] = 0;\r\n                downvoteCount[org_address]=0;\r\n                address_med_map[org_address] = org;\r\n                exists_address_med_map[org_address] = true;\r\n                 activeRequests.push(org_address);\r\n                activeRequestsLength +=1;\r\n            }else{\r\n                revert(\"Wrong Type!\");\r\n            }\r\n\r\n          \r\n        }\r\n\r\n  \r\n    function removeRequest(address org) internal {\r\n    \r\n        for(uint i=0;i<activeRequests.length;i++)\r\n        {\r\n            if(activeRequests[i]==org)\r\n            {\r\n                activeRequests[i]=activeRequests[activeRequests.length-1];\r\n                activeRequests.pop();\r\n                activeRequestsLength -=1;\r\n                break;\r\n            }\r\n        }\r\n        return;\r\n\r\n    }\r\n\r\n    function registerPerson(\r\n      address person_address,\r\n        string memory pic_hash,\r\n        string memory name,\r\n        string memory Gender,\r\n        string memory AadharNo,\r\n        string memory phyAddress,\r\n        string memory dob,\r\n        string memory contactNo\r\n    ) public {\r\n        Person storage per = address_person_map[person_address];\r\n        per.name = name;\r\n        per.pic_hash = pic_hash;\r\n        per.Gender = Gender;\r\n        per.AadharNo = AadharNo;\r\n        per.dob = dob;\r\n        per.ethAddress = person_address;\r\n        per.phyAddress = phyAddress;\r\n        per.contactNo = contactNo;\r\n\r\n        exists_address_person_map[person_address] = true;\r\n    }\r\n\r\n    function getPerson(address person_address) public view returns (Person memory){\r\n        return address_person_map[person_address];\r\n    }\r\n\r\n    function getOrg(address org_address) public view returns (Organization memory){\r\n        if(exists_address_edu_map[org_address]){ return address_edu_map[org_address]; }\r\n        else if(exists_address_med_map[org_address]){ return address_med_map[org_address]; }\r\n        else if(exists_address_crime_map[org_address]){ return address_crime_map[org_address]; }\r\n        return address_edu_map[org_address];\r\n    }\r\n\r\n    function getDocsList(address user_address, uint org_type) public view returns (Person_data [] memory){\r\n        Person memory user = address_person_map[user_address];\r\n        if(org_type == 0){ return user.Edu_data; }\r\n        else if(org_type == 1){ return user.Crime_data; }\r\n        else{ return user.Med_data; }\r\n    }\r\n\r\n    function checkRole(address my_address) public view returns (uint256) {\r\n        if(my_address == admin) {return 1;}\r\n        if(exists_address_person_map[my_address] == true){ return 2; }\r\n        if(exists_address_edu_map[my_address] == true){ return 3; }\r\n        if(exists_address_med_map[my_address] == true){ return 4; }\r\n        if(exists_address_crime_map[my_address] == true){ return 5; }\r\n        if(verifiers[my_address]){return 6;}\r\n        return 0;\r\n    }\r\n\r\n    function addPersonDoc(\r\n        address person_address,\r\n        uint org_type,\r\n        address org_address,\r\n        string memory doc_hash,\r\n        string memory doc_title,\r\n        string memory Description\r\n    ) public {\r\n        require(\r\n            verified_address_edu_map[org_address] ||\r\n                verified_address_crime_map[org_address] ||\r\n                verified_address_med_map[org_address],\r\n            \"ORGANISATION NOT VERIFIED!\"\r\n        );\r\n        require(\r\n            exists_address_person_map[person_address],\r\n            \"PERSON DOES NOT EXIST!\"\r\n        );\r\n        Person storage per = address_person_map[person_address];\r\n        string memory org_name = \"\";\r\n        if(org_type == 0){ org_name = address_edu_map[org_address].name; }\r\n        else if(org_type == 1){ org_name = address_crime_map[org_address].name; }\r\n        else if(org_type == 2){ org_name = address_med_map[org_address].name; }\r\n        Person_data memory tempData = Person_data(\r\n                org_address,\r\n                org_type,\r\n                org_name,\r\n                doc_title,\r\n                Description,\r\n                doc_hash,\r\n                block.timestamp\r\n        );\r\n        if(org_type == 0){ per.Edu_data.push(tempData); }\r\n        else if(org_type == 1){ per.Crime_data.push(tempData); }\r\n        else if(org_type == 2){ per.Med_data.push(tempData); }\r\n        \r\n    }\r\n\r\n  \r\n     function upvoteRequest(address org) public isVerifier returns(bool){\r\n        \r\n        if (!(exists_address_edu_map[org]  || exists_address_med_map[org] || exists_address_crime_map[org]) ){\r\n            revert(\"Org not found\");\r\n        }\r\n        if(voteStatus[msg.sender][org]){\r\n            revert(\"Already Voted\");\r\n        }\r\n        \r\n        voteStatus[msg.sender][org]=true;\r\n        upvoteCount[org]+=1;\r\n        if(upvoteCount[org]>verifierCount/2)\r\n            verifyOrg(org);\r\n        return true;\r\n\r\n\r\n    }\r\n\r\n    function downvoteRequest(address org) public isVerifier returns(bool){\r\n       if (!(exists_address_edu_map[org]  || exists_address_med_map[org] || exists_address_crime_map[org]) ){\r\n            revert(\"Org not found\");\r\n        }\r\n        if(voteStatus[msg.sender][org]){\r\n            revert(\"Already Voted\");\r\n        }\r\n        voteStatus[msg.sender][org]=true;\r\n        downvoteCount[org]+=1;\r\n        if( (verifierCount%2==0 &&  downvoteCount[org]>= verifierCount/2 ) || (verifierCount%2==1 &&  downvoteCount[org]> verifierCount/2 )  )\r\n            unverifyOrg(org);\r\n        return true;\r\n\r\n    }\r\n\r\n\r\n    function verifyOrg(address org_address) internal {\r\n        removeRequest(org_address);\r\n        if(exists_address_edu_map[org_address]){ verifyEduOrg(org_address); }\r\n        else if(exists_address_med_map[org_address]){ verifyMedOrg(org_address); }\r\n        else if(exists_address_crime_map[org_address]){ verifyCrimeOrg(org_address); }\r\n        else{\r\n            revert(\"No org found\");\r\n        }\r\n    }\r\n\r\n    function unverifyOrg(address org_address) internal {\r\n        removeRequest(org_address);\r\n        if(exists_address_edu_map[org_address]){ unverifyEduOrg(org_address); }\r\n        else if(exists_address_med_map[org_address]){ unverifyMedOrg(org_address); }\r\n        else if(exists_address_crime_map[org_address]){ unverifyCrimeOrg(org_address); }\r\n        else{\r\n            revert(\"No org found\");\r\n        }\r\n    }\r\n\r\n    function verifyEduOrg(address org_address) internal {\r\n        require(\r\n            exists_address_edu_map[org_address],\r\n            \"ORGANISATION DOES NOT EXIST!\"\r\n        );\r\n        Organization storage temporg = address_edu_map[org_address];\r\n        temporg.isVerified = true;\r\n        verified_address_edu_map[org_address] = true;\r\n    }\r\n\r\n    function unverifyEduOrg(address org_address) internal {\r\n        require(\r\n            exists_address_edu_map[org_address],\r\n            \"ORGANISATION DOES NOT EXIST!\"\r\n        );\r\n        Organization storage temporg = address_edu_map[org_address];\r\n        temporg.isRejected = true;\r\n        verified_address_edu_map[org_address] = false;\r\n    }\r\n\r\n    function verifyCrimeOrg(address org_address) internal {\r\n        require(\r\n            exists_address_crime_map[org_address],\r\n            \"ORGANISATION DOES NOT EXIST!\"\r\n        );\r\n        Organization storage temporg = address_crime_map[org_address];\r\n        temporg.isVerified = true;\r\n        verified_address_crime_map[org_address] = true;\r\n    }\r\n\r\n    function unverifyCrimeOrg(address org_address)internal {\r\n        require(\r\n            exists_address_crime_map[org_address],\r\n            \"ORGANISATION DOES NOT EXIST!\"\r\n        );\r\n        Organization storage temporg = address_crime_map[org_address];\r\n        temporg.isRejected = true;\r\n        verified_address_crime_map[org_address] = false;\r\n    }\r\n\r\n    function verifyMedOrg(address org_address) internal {\r\n        require(\r\n            exists_address_med_map[org_address],\r\n            \"ORGANISATION DOES NOT EXIST!\"\r\n        );\r\n        Organization storage temporg = address_med_map[org_address];\r\n        temporg.isVerified = true;\r\n        verified_address_med_map[org_address] = true;\r\n    }\r\n\r\n    function unverifyMedOrg(address org_address) internal {\r\n        require(\r\n            exists_address_med_map[org_address],\r\n            \"ORGANISATION DOES NOT EXIST!\"\r\n        );\r\n        Organization storage temporg = address_med_map[org_address];\r\n        temporg.isRejected = true;\r\n        verified_address_med_map[org_address] = true;\r\n    }\r\n\r\n   \r\n}",
  "sourcePath": "C:\\Users\\maitr\\Documents\\GitHub\\DocVerify\\contracts\\Aadhar.sol",
  "compiler": {
    "name": "solc",
    "version": "0.8.11+commit.d7f03943.Emscripten.clang"
  },
  "schemaVersion": "3.4.4",
  "updatedAt": "2023-05-13T18:49:01.075Z",
  "networkType": "ethereum",
  "devdoc": {
    "kind": "dev",
    "methods": {},
    "version": 1
  },
  "userdoc": {
    "kind": "user",
    "methods": {},
    "version": 1
  }
}